:020000040800F2
:10000000D00F0020C50100089538000821340008F1
:1000100091380008B70700081944000800000000E4
:100020000000000000000000000000009B380008F5
:10003000A70A000800000000993800089D38000851
:10004000DF010008DF010008DF010008DF01000810
:10005000DF010008DF010008DF010008DF01000800
:10006000DF010008DF010008DF010008DF010008F0
:10007000DF010008DF010008DF010008DF010008E0
:100080005D0900086D090008DF010008DF010008B4
:10009000BD070008CD070008DF010008DF010008E8
:1000A000DF010008B9380008DF010008DF0100089F
:1000B000DF010008DF010008DF010008DF010008A0
:1000C000DF010008DF010008DF010008DF01000890
:1000D000DF010008DF010008F9430008DF01000824
:1000E000DF010008DF010008DF010008DF01000870
:1000F000DF010008DF010008DF010008DF01000860
:10010000DF010008DF010008DF010008DF0100084F
:10011000DF010008DF010008DF010008DF0100083F
:10012000DF0100087D090008DF010008DF01000889
:10013000DF010008DF010008DF010008DF0100081F
:10014000DD070008ED070008DF010008DF010008F7
:10015000DF0100088D090008DF01000809440008DC
:10016000DF010008DF010008DF010008DF010008EF
:10017000DF010008DF010008DF01000800000000C7
:10018000DF010008DF010008DF010008DF010008CF
:10019000DF010008DF010008DF010008DF010008BF
:1001A0000000000000000000DF010008DFF810D0B0
:1001B00000F080FA00F06EF800480047DD5E0008AD
:1001C000D00F00200648804706480047FEE7FEE7BC
:1001D000FEE7FEE7FEE7FEE7FEE7FEE7FEE7FEE7F7
:1001E000A5380008AD0100082DE9F05F05460020A4
:1001F00092469B4688460646814640241BE0284698
:1002000041464746224600F08DF853465A46C01AEA
:10021000914110D311461846224600F074F82D1A69
:1002200067EB01084F4622460120002100F06BF8E1
:1002300017EB00094E41201EA4F10104DFDC484603
:1002400031462A464346BDE8F09F40EA01039B073A
:1002500003D009E008C9121F08C0042AFAD203E03B
:1002600011F8013B00F8013B521EF9D27047D2B29F
:1002700001E000F8012B491EFBD270470022F6E78F
:1002800010B513460A4604461946FFF7F0FF20460C
:1002900010BD000070B5054C054D03E020682044FA
:1002A0008047241DAC42F9D170BD0000D85F000822
:1002B000DC5F000800F0004230F000400AD0C10DC1
:1002C00001F56071C0F3160042EA0151C20840070F
:1002D0001143704700200146704730B50B46014678
:1002E00000202022012409E021FA02F59D4205D3D5
:1002F00003FA02F5491B04FA02F52844151EA2F17F
:100300000102F1DC30BD202A04DB203A00FA02F1C0
:10031000002070479140C2F1200320FA03F31943F3
:1003200090407047202A04DB203A21FA02F0002195
:10033000704721FA02F3D040C2F1200291400843F5
:10034000194670472DE9FE4F804681EA0300C00F31
:100350000C46009021F0004123F00045B8EB02006C
:10036000A94105D24046214690461C460B4602460E
:1003700023F00040104347D0270DC7F30A00C3F312
:100380000A510290401A019040286BDAC3F313001F
:1003900040F4801B0098924620B10023D2EB030A60
:1003A00063EB0B0B01985946C0F140025046FFF732
:1003B000AAFF06460D4650465946019A00F08CF9B0
:1003C00010EB08006141002487EA115284EAE773C8
:1003D0001A4340D0009A62B3019A012A4FEA0752A9
:1003E00015DC001B61EB02014FF0004202EA0752EC
:1003F000CDE90042001C41F5801132462B4600F049
:100400008CF903B0BDE8F08F40462146F9E7001BA8
:1004100061EB0201001C41F5801300185B412018BC
:10042000A2F5001747EB030140EAD570B6196D41FC
:1004300011E06D084FEA360645EAC0754FEA0752EB
:10044000001B61EB0201001C41F5801149084FEAD5
:1004500030000019514132462B4603B0BDE8F04F41
:1004600000F04CB90098012240000023D0EB0202BA
:1004700063EBE073009821464FEAE074B8EB0000AC
:1004800061EB0401E9E783F000435BE781F00041A1
:1004900058E72DE9FE4F81EA030404F0004421F0FF
:1004A000004100944FF0000B23F0004350EA010498
:1004B0005ED052EA03045BD0C3F30A54C1F30A5579
:1004C0002C44A4F2F3340194A0FB0254C1F31301B1
:1004D00041F48011C3F3130343F4801301FB02447E
:1004E00000FB034E840A970A44EA815447EA835783
:1004F000A4FB076802958D0A05FB07854FEA932C3C
:1005000004FB0C542705029D4FEA065847EA1637AC
:10051000B5EB08056EEB070C870E920E47EA8117C4
:1005200042EA8312A7FB0201B6EB0B0164EB000465
:100530002B0D43EA0C335E1844EB1C50DA4651464F
:10054000E7FB0201C5F313044FEA0B3343EA1453EC
:100550004FEA0432019C43EA0603A4F10C0402941E
:10056000009CCDE900B400F0D8F803B0BDE8F08FEE
:1005700000200146F9E72DE9F04D81EA030404F07B
:10058000004B21F0004514464FF0000A23F00041D3
:1005900050EA050220D054EA01021DD0C5F30A57E3
:1005A0000246C5F31303C1F31300C1F30A5640F426
:1005B000801543F48013A7EB0608101BD64608F2FB
:1005C000FD3873EB050002D308F1010801E0921831
:1005D0005B41B8F1000F03DA00200146BDE8F08D61
:1005E00000204FF48011064684460EE0171B73EB83
:1005F000050705D3121B63EB050306434CEA010C08
:1006000049084FEA300092185B4150EA0107EDD1EA
:1006100052EA030012D082EA040083EA050108438B
:1006200005D0101BAB4106D20122002306E00022B8
:100630004FF0004302E06FF0010253101AEB060086
:100640004CEB085110EB0A0041EB0B01BDE8F04DFB
:1006500000F054B8C1F30A52C1F3130140F2FF3362
:1006600041F480119A4202DA00200146704740F2BC
:1006700033439A42A2F2334202DC5242FFF752BEA7
:10068000FFF741BE30B5041E71F1000404DB4FF0EA
:100690000044404264EB0101141E73F1000405DBC9
:1006A0001C464FF00043524263EB0403994208BFDB
:1006B000904230BD064C074D06E0E06840F0010373
:1006C00094E8070098471034AC42F6D3FFF772FD68
:1006D000B85F0008D85F0008202A06DBCB17203A55
:1006E00041FA02F043EAE07306E041FA02F3D04037
:1006F000C2F12002914008431946704710B5141EFC
:1007000073F1000408DA401C41F1000192185B41CA
:100710001A4301D120F0010010BD2DE9F04D9246A1
:100720009B4611B1B1FA81F202E0B0FA80F22032B8
:100730009046FFF7E8FD04460F4640EA0A0041EA0A
:100740000B0153465A46084313D0114653EA0100A1
:1007500019D0C8F140025046FFF7E4FD05460E46A9
:10076000504659464246FFF7CEFD084305D00120CA
:1007700004E020463946BDE8F08D0020054346EAF6
:10078000E0762C4337430A986305E40AA0EB08009F
:100790000022FD0A44EA47540A3002D500200146EF
:1007A000E9E7010510196941DDE9084500196941CA
:1007B000BDE8F04DA2E700BFFEE7000010B502481B
:1007C00000F08BFB10BD00006800002010B502484F
:1007D00000F083FB10BD00006800002010B5024847
:1007E00000F07BFB10BD00009000002010B5024817
:1007F00000F073FB10BD000090000020F0B58BB03E
:1008000007460C4615461E46069400200790012018
:10081000089005957005000C0190002002904FF69D
:10082000E0700390002004900E200A9001200990AF
:1008300001A9384600F0F6F90BB0F0BD70B50446DA
:100840000D462946204600F032F970BDF0B587B05C
:1008500007460D46144637B12CB1A079082802DCB2
:1008600025B1012D02D0002007B0F0BDE31D6A467E
:100870002946384600F067FA06460EB10020F3E735
:100880000498A0710298207103986071029810B9C1
:100890000098206007E00298042802D101982060A7
:1008A00001E00020E0E70120DEE72DE9F04188B01B
:1008B00005460C4690463DB134B1A079082803DCCA
:1008C0002068B0F5006F03D3002008B0BDE8F081C8
:1008D000207920B9206802900020039006E020795A
:1008E000042803D10020029020680390207904900E
:1008F00060790590A079069000208DF81C0001F029
:1009000067F9074616E028688068C0F3806048B938
:1009100028688068C0F3C06020B928688068C0F388
:10092000007000B107E001F053F9C01B404501D948
:100930000020CAE7E7E700BF01ABE21D02A9284695
:1009400000F0CAF806460EB90120BEE70020BCE759
:1009500010B50446204600F0ACFD10BD10B50248AD
:1009600000F048FE10BD0000D802002010B502487B
:1009700000F040FE10BD00003803002010B5024812
:1009800000F038FE10BD00009803002010B50248AA
:1009900000F030FE10BD0000F8030020014608788A
:1009A00010381823B0FBF3F20848805CC865032AAE
:1009B00005D908686FF30900001D886503E0086821
:1009C0006FF309008865886D70470000985F000824
:1009D000014600208A6A8B69CBB932B1012A0DD059
:1009E000022A03D0032A10D10EE000BFCB6A03F025
:1009F0008073B3F1807F00D1012007E0CB6AB3F1AF
:100A0000C07F00D1012001E000E000BF34E08B692D
:100A1000B3F5005F1AD132B1012A07D0022A03D000
:100A2000032A11D10AE000BF01200EE0CB6A03F0D7
:100A30008073B3F1807F00D1012006E0CB6AB3F16F
:100A4000C07F00D1012000E000BF15E032B1012AD3
:100A500005D0022A04D0032A0CD103E000BF00BF56
:100A6000012008E0CB6A03F08073B3F1807F00D1EE
:100A7000012000E000BF00BF704730B50468246863
:100A800024F4802405682C60046863608468402C2A
:100A900004D10468A2600468E16003E00468A16016
:100AA0000468E26030BD704772B600BFFEE710B563
:100AB000024692F82030012B01D0022B06D110689B
:100AC0004069084314686061002010BD506A40F41A
:100AD000802050620120F8E7F0B504460D461E461E
:100AE00094F8207020688368A86800B900E000BF0F
:100AF000012F01D0022F7DD103F0806030B903F0C7
:100B0000006018B903F0805000287ED0C3F3016163
:100B1000012088403060A86860B9B5F800C0E86876
:100B200040EA4C5C206800F5C07000EB0110C0F892
:100B300000C00FE0D5E901C040EACC00D5F80CC0F8
:100B400040EA0C00D4F800C00CF5C07C0CEB011C92
:100B5000CCF80000D5F810C0206800F5C07000EB9C
:100B60000110C0F804C0287D01280ED1206800F5CE
:100B7000C07000EB0110406840F4807C206800F5F4
:100B8000C07000EB0110C0F804C0D079000692F8E4
:100B900006C040EA0C4092F805C040EA0C2092F8EA
:100BA00004C040EA0C00D4F800C00CF5C07C0CEB8B
:100BB000011CCCF80C00D078000692F802C040EA84
:100BC0000C4092F801C040EA0C2092F800C040EAC4
:100BD0000C00D4F800C00CF5C07C0CEB011CCCF868
:100BE0000800206800F5C07000EB0110006840F0BC
:100BF000010C01E00FE008E0206800F5C07000EB98
:100C00000110C0F800C00020F0BD606A40F4001080
:100C100060620120F8E7606A40F480206062012091
:100C2000F2E70000F0B504460A4694F82050012D82
:100C300001D0022D7ED1424901F50071086840F0D3
:100C400001000860086820F47C5008600868566A53
:100C500040EA06200860107D00F01F06012000FA1F
:100C600006F3C8699843C861A1F50071D069C8B995
:100C7000D1F80C029843C1F80C02908880B2968992
:100C800040EA064601F51070576940F83760108851
:100C900080B2168940EA064601F51070576900EBEC
:100CA000C7004660D069012819D1D1F80C02184359
:100CB000C1F80C02908880B2168840EA064601F519
:100CC0001070576940F83760908980B2168940EA01
:100CD000064601F51070576900EBC7004660906941
:100CE00028B9D1F804029843C1F8040204E0D1F80D
:100CF00004021843C1F80402106928B9D1F814029B
:100D00009843C1F8140204E0D1F814021843C1F862
:100D10001402106A012804D1D1F81C021843C1F84A
:100D20001C02D1F8000220F00100C1F800020020EE
:100D3000F0BDFFE7606A40F4802060620120F7E7C1
:100D400000640040704770B5044694F82050012DAF
:100D500001D0022D7DD151B92068C06800F0030098
:100D600080B9606A40F400106062012070BD2068A4
:100D7000006900F0030028B9606A40F40010606266
:100D80000120F3E7206800F5D87000EB011000683F
:100D900000F004009060906840B9206800F5D870B9
:100DA00000EB01100068400D106007E0206800F5BE
:100DB000D87000EB01100068C0085060206800F592
:100DC000D87000EB0110006800F00200D0602068CD
:100DD00000F5D87000EB0110406800F00F00082803
:100DE00002D30820106108E0206800F5D87000EBFD
:100DF0000110406800F00F001061206800F5D87005
:100E000000EB0110406800F47F40000A9061206808
:100E100000F5D87000EB01104068000C50612068AC
:100E200000F5D87000EB011080681870206800F59C
:100E3000D87000EB0110806800F47F40000A587001
:100E4000206800F5D87000EB0110806800F47F0086
:100E500000E03CE0000C9870206800F5D87000EBD2
:100E600001108068000ED870206800F5D87000EB83
:100E70000110C0681871206800F5D87000EB0110EF
:100E8000C06800F47F40000A5871206800F5D870EF
:100E900000EB0110C06800F47F00000C987120681E
:100EA00000F5D87000EB0110C068000ED87131B9A0
:100EB0002068C06840F020002668F06005E02068E7
:100EC000006940F020002668306100204EE7606A2B
:100ED00040F480206062012048E72DE9F05F04467D
:100EE0000025206846692068D0F80490206887684B
:100EF0002068D0F80CA02068D0F810B02068D0F896
:100F0000188006F00100002855D007F00100C0B19C
:100F100001202168886007F0020018B1204600F027
:100F2000F8FA0EE007F0040010B145F4006508E09F
:100F300007F0080010B145F4805502E0204600F0AB
:100F4000E7FA07F48070C8B14FF4807021688860B8
:100F500007F4007018B1204600F0DDFA0EE007F447
:100F6000806010B145F4005508E007F4006010B14E
:100F700045F4804502E0204600F0CCFA07F48030CA
:100F8000C8B14FF480302168886007F4003018B190
:100F9000204600F0C2FA0EE007F4802010B145F4BC
:100FA000004508E007F4002010B145F4803502E068
:100FB000204600F0B1FA06F0080038B10AF010003F
:100FC00020B145F4007510202168C86006F00400C7
:100FD00040B10AF0080028B108202168C860204606
:100FE00000F01EFA06F0020038B12068C06800F078
:100FF000030010B1204600F015FA06F0400038B1A9
:101000000BF0100020B145F48065102021680861C4
:1010100006F0200040B10BF0080028B1082021683C
:101020000861204600F020FA06F0100038B1206870
:10103000006900F0030010B1204600F017FA06F432
:10104000003040B109F0100028B11020216848603C
:10105000204600F02DFA06F4803040B109F0080077
:1010600028B1082021684860204600F057FA06F4AD
:10107000004088B309F0040078B306F4807020B112
:1010800008F0010008B145F0010506F4007020B138
:1010900008F0020008B145F0020506F4806020B1B6
:1010A00008F0040008B145F0040506F40060A0B1A2
:1010B00008F0700088B108F07000402817D006DCF6
:1010C00010280BD020280CD0302819D10CE0502843
:1010D00010D0602814D110E01DE019E045F008059B
:1010E0000FE045F010050CE045F0200509E045F063
:1010F000400506E045F0800503E045F4807500E01A
:1011000000BF00BF2068806920F0700021688861FE
:101110000420216848602DB1606A2843606220463F
:10112000FFF710FEBDE8F09F70B504460CB9012032
:1011300070BD94F8200010B9204600F0AFF8206888
:10114000006840F001002168086000F041FD05469C
:101150000DE000F03DFD401B0A2808D9606A40F40C
:1011600000306062052084F820000120E0E720685C
:10117000406800F001000028EBD02068006820F0F3
:1011800002002168086000F023FD05460DE000F034
:101190001FFD401B0A2808D9606A40F400306062D5
:1011A000052084F820000120C2E72068406800F094
:1011B00002000028EBD1207E012806D120680068BB
:1011C00040F080002168086005E02068006820F099
:1011D000800021680860607E012806D120680068D0
:1011E00040F040002168086005E02068006820F0B9
:1011F000400021680860A07E012806D120680068B0
:1012000040F020002168086005E02068006820F0B8
:10121000200021680860E07E012806D1206800686F
:1012200020F010002168086005E02068006840F0A8
:10123000100021680860207F012806D1206800681E
:1012400040F008002168086005E02068006820F090
:10125000080021680860607F012806D120680068C6
:1012600040F004002168086005E02068006820F074
:10127000040021680860D4E9020108432169084399
:10128000616908436168491E08432168C8610020FC
:101290006062012084F82000002049E710B586B084
:1012A0000446142101A8FEF7E9FF57492068884247
:1012B00049D156480068401C5449086008460068F7
:1012C00001280FD100BF002000905148006840F075
:1012D00000704F4908600846006800F000700090F8
:1012E00000BF00BF00BF00200090494810380068D0
:1012F00040F008004649103908600846006800F0D0
:101300000800009000BF00BF03200190022002905F
:1013100000200390032004900920059001A93D4876
:1013200000F048FB00220121142000F0E3FC14200F
:1013300000F0CCFC01221146152000F0DBFC15204A
:1013400000F0C4FC5DE034492068884259D100BFF8
:10135000002000902E48006840F080602C49086012
:101360000846006800F08060009000BF00BF27487A
:101370000068401C254908600846006801280FD114
:1013800000BF002000902248006840F00070204913
:1013900008600846006800F00070009000BF00BFC1
:1013A00000BF002000901A481038006840F002008A
:1013B0001749103908600846006800F002000090E4
:1013C00000BF00BF4FF44050019002200290002067
:1013D0000390032004900920059001A90F4800F014
:1013E000E9FA00221146402000F084FC402000F081
:1013F0006DFC01220021412000F07CFC412000F026
:1014000065FC06B010BD0000006400400000002034
:1014100040380240000C02400068004000040240D6
:101420007047000010B504460A492068884208D178
:10143000094A00212046FFF709FA012007490870F0
:1014400007E0074A00212046FFF700FA012005497E
:10145000087010BD006400405806002019000020EC
:10146000680600201A0000207047000010B50446EE
:101470000A492068884208D1094A01212046FFF71D
:10148000E5F901200749087007E0074A01212046D5
:10149000FFF7DCF901200549087010BD0064004029
:1014A0005806002019000020680600201A000020BD
:1014B000704770B5044694F82000012822D102201C
:1014C00084F820002068006820F00100216808608E
:1014D00000F07EFB05460DE000F07AFB401B0A2879
:1014E00008D9606A40F400306062052084F820006A
:1014F000012070BD2068406800F001000028EBD199
:101500006062F6E7606A40F4002060620120F0E764
:10151000704770477047704770477047704770B5A5
:101520000446A56D00F054FB064694F835000228E9
:1015300008D08020606500BF002084F8340000BF20
:10154000012070BD2068006820F016002168086046
:101550002068406920F0800021684861206C08B94B
:10156000A06C28B12068006820F00800216808609D
:101570002068006820F001002168086010E000F099
:1015800027FB801B05280BD920206065032084F8E9
:10159000350000BF002084F8340000BF0320D0E7EE
:1015A0002068006800F001000028E8D194F85C1081
:1015B0003F208840A860012084F8350000BF00204B
:1015C00084F8340000BF00BFBBE7014691F8350046
:1015D000022803D08020486501207047052081F84B
:1015E00035000868006820F001000A6810600020DB
:1015F000F3E70000F8B50446002000908C4800682E
:101600004FF41651B0FBF1F7A56D2E6894F85C10FD
:1016100008208840304098B12068006800F004003D
:1016200070B12068006820F004002168086094F818
:101630005C1008208840A860606D40F00100606583
:1016400094F85C1001208840304068B120684069FF
:1016500000F0800040B194F85C1001208840A86040
:10166000606D40F00200606594F85C1004208840D2
:10167000304068B12068006800F0020040B194F882
:101680005C1004208840A860606D40F00400606534
:1016900094F85C1010208840304078B320680068CF
:1016A00000F0080050B394F85C1010208840A86047
:1016B0002068006800F4802080B12068006800F491
:1016C000002028B9206CC8B12046216C884715E05D
:1016D000A06C98B12046A16C88470FE02068006894
:1016E00000F4807028B92068006820F008002168A4
:1016F0000860206C10B12046216C884794F85C107B
:10170000202088403040002865D02068006800F024
:10171000100000285FD094F85C1020208840A8605A
:1017200094F83500052828D12068006820F01600BC
:10173000216808602068406920F0800021684861C5
:10174000206C08B9A06C28B12068006820F008005F
:101750002168086094F85C103F208840A860012050
:1017600084F8350000BF002084F8340000BF206DED
:1017700010B12046216D8847F8BD2068006800F44C
:10178000802080B12068006800F4002028B9606CD7
:1017900010B12046616C88471DE0E06BD8B120464F
:1017A000E16B884717E02068006800F4807068B932
:1017B0002068006820F0100021680860012084F88B
:1017C000350000BF002084F8340000BFE06B10B18A
:1017D0002046E16B8847606D38B3606D00F0010012
:1017E000F0B1052084F835002068006820F0010081
:1017F0002168086000BF0098401C0090B84200D9E2
:1018000005E02068006800F001000028F3D100BF67
:10181000012084F8350000BF002084F8340000BFA8
:10182000E06C10B12046E16C884700BFA4E70000DF
:10183000140000202DE9F0410446002500F0C8F90D
:10184000074614B90120BDE8F081606A00B100BF0D
:10185000022084F8350000BF002084F8340000BF67
:101860002068006820F00100216808600AE000F0AC
:10187000AFF9C01B052805D920206065032084F836
:101880003500E0E72068006800F001000028EED194
:101890002068056821480540D4E901010843E16852
:1018A00008432169084361690843A1690843E16964
:1018B0000843216A08430543606A042803D1D4E938
:1018C0000B0108430543206805602068456925F041
:1018D0000705606A0543606A04280DD1A06A0543C4
:1018E000E06A48B12046FFF773F828B140206065F0
:1018F000012084F83500A6E7206845612046FFF7FF
:101900004DF8064694F85C103F208840B0600020F7
:101910006065012084F83500002094E73F8010F0D6
:101920002DE9F04704460D4616461F464FF00008C5
:10193000D4F8589000BF94F83400012802D1022056
:10194000BDE8F087012084F8340000BF94F835002A
:10195000012825D1022084F83500002060653B462F
:10196000324629462046FFF788F894F85C103F205D
:101970008840C9F808002068006840F01600216817
:101980000860206C28B12068006840F008002168D9
:1019900008602068006840F001002168086006E0E7
:1019A00000BF002084F8340000BF4FF0020840461A
:1019B000C6E70000F8B502460B46002500240020CB
:1019C0000021E0E0012606FA01F51E6806EA05049A
:1019D000AC4274D11E7906F00306012E04D01E79A4
:1019E00006F00306022E13D190684F000326BE4076
:1019F000B0434F00DE68BE4030439060506801261F
:101A00008E40B0431E79C6F300168E4030435060BE
:101A10001E7906F00306032E09D0D0684F00032676
:101A2000BE40B0434F009E68BE403043D0601E7938
:101A300006F00306022E13D1CF0802F1200656F855
:101A400027004E07F70E0F26BE40B0434F07FF0E8C
:101A50001E69BE403043CF0802F1200646F8270039
:101A600010684F000326BE40B0431E7906F00306FF
:101A70004F00BE40304310605E6806F44036002ED2
:101A80001DD000BF00260096414E366846F48046C1
:101A90003F4F3E603E46366806F48046009600BFE3
:101AA00000BF3C4E8F0856F827008E07370F0F26D1
:101AB000BE40B043384EB24202D100262EE061E073
:101AC000364EB24201D1012628E0354EB24201D154
:101AD000022623E0334EB24201D103261EE0324EED
:101AE000B24201D1042619E0304EB24201D105269E
:101AF00014E02F4EB24201D106260FE02D4EB24225
:101B000001D107260AE02C4EB24201D1082605E099
:101B10002A4EB24201D1092600E00A268F073F0F64
:101B2000BE4030431B4E8F0846F82700244E3068D5
:101B3000A0435E6806F4801606B12043204E306054
:101B4000361D3068A0435E6806F4001606B12043D7
:101B50001B4E361D30601A4E361F3068A0435E683B
:101B600006F4003606B12043154E361F3060361F8E
:101B70003068A0435E6806F4803606B12043104EFC
:101B8000083E3060491C1029FFF41CAFF8BD00006E
:101B9000443802400838014000000240000402407E
:101BA00000080240000C02400010024000140240F5
:101BB00000180240001C02400020024000240240A5
:101BC000083C01400AB1816101E00B048361704768
:101BD00001480068704700000800002003480068C2
:101BE000034909780844014908607047080000204B
:101BF0001000002010B50D48006840F400700B493B
:101C000008600846006840F4806008600846006884
:101C100040F480700860032000F0AAF8072000F06C
:101C200007F800F02BF8002010BD0000003C024037
:101C300070B504460E4800784FF47A71B1FBF0F0AD
:101C40000C490968B1FBF0F5284600F079FC08B1B1
:101C5000012070BD102C07D200222146501E00F03A
:101C600049F80548046001E00120F2E70020F0E7B0
:101C700010000020140000200C00002008B500BF58
:101C8000002000901048006840F480400E49086031
:101C90000846006800F48040009000BF00BF00BF0D
:101CA00000200090081F006840F08050091F086065
:101CB0000846006800F08050009000BF00BF04207C
:101CC00000F056F808BD00004438024001460846BE
:101CD00000280DDB00BF00BF00F01F0301229A4067
:101CE00043099B0003F1E023C3F8002100BF00BFBC
:101CF00000BF70472DE9F05F80460D46164600276D
:101D000003F0A8FB074639462A46334601F0070090
:101D1000C0F1070ABAF1040F02D94FF0040A01E03A
:101D2000C0F1070AD14600F1040ABAF1070F02D246
:101D30004FF0000A01E0A0F1030AD4464FF0010A77
:101D40000AFA09FAAAF1010A0AEA020A0AFA0CFADC
:101D50004FF0010B0BFA0CFBABF1010B0BEA030B81
:101D60004AEA0B042146404603F07CFBBDE8F09FA5
:101D700000BF00F00702064B19684FF6FF03194039
:101D8000044B0B4343EA0221014B196000BF70472B
:101D90000CED00E00000FA0538B5002400BF00207B
:101DA00000901D48006840F080501B4908600846BC
:101DB000006800F08050009000BF00BF012017496C
:101DC0000864FFF705FF044607E0FFF701FF001B6B
:101DD000B0F57A7F01D9032038BD1148406800F47E
:101DE0008030B0F5803FF0D101200C494864FFF706
:101DF000EFFE044607E0FFF7EBFE001BB0F57A7F2D
:101E000001D90320E8E70648406800F40030B0F547
:101E1000003FF0D10020DFE74038024000000E42D2
:101E20000070004070B504460D460CB9012070BD2D
:101E30005848006800F00F00A84209D255490D70BB
:101E40000846006800F00F00A84201D00120EEE72C
:101E5000207800F0020002281DD1207800F0040054
:101E6000042805D14C48006840F4E0504A49086015
:101E7000207800F00800082805D14748006840F4A1
:101E80006040454908604448006820F0F000A168BF
:101E9000084341490860207800F00100A8B3606859
:101EA000012807D13C4808380068C0F34040B8B961
:101EB0000120BCE76068022802D06068032807D1CF
:101EC000354808380068C0F3406048B90120AEE7E3
:101ED000314808380068C0F3400008B90120A6E77F
:101EE0002D48006820F00300616808432A49086013
:101EF000FFF76EFE064609E0FFF76AFE801B41F21F
:101F00008831884202D9032091E707E0224800681F
:101F100000F00C006168B0EB810FEDD11D48006846
:101F200000F00F00A84209D91A490D700846006850
:101F300000F00F00A84201D0012078E7207800F0DF
:101F40000400042807D11448006820F4E050E16838
:101F5000084311490860207800F00800082808D1DB
:101F60000D48006820F46040216940EAC1000A4938
:101F7000086000F03FF808490968C1F30311074AF7
:101F8000515CC8400649086006480068FFF750FEEB
:101F900000204CE7003C024008380240A05F0008E7
:101FA000140000200C000020014800687047000069
:101FB0001400002000B5FFF7F7FF04490968C1F3DA
:101FC0008221034A515CC84000BD0000083802402D
:101FD000B05F000800B5FFF7E7FF04490968C1F3E7
:101FE0004231034A515CC84000BD0000083802403D
:101FF000B05F00082DE9F047002400250026A14627
:102000002548006800F00C0020B1042805D00828FD
:102010003AD105E0DFF8849039E0DFF8849036E0CB
:102020001D48001F006800F03F041B48001F0068A7
:1020300000F4800078B11A481749091F0968C1F3F4
:102040008811A0FB01700146224600233846FEF7A6
:10205000CBF805460EE011480F49091F0968C1F386
:102060008811A0FB01700146224600233846FEF786
:10207000BBF805460848001F0068C0F30140401C3B
:102080004600B5FBF6F902E0DFF8109000BF00BF94
:102090004846BDE8F0870000083802400024F400FC
:1020A000001BB700F8B504460CB90120F8BD207834
:1020B00000F00100002874D0F948006800F00C001E
:1020C00004280DD0F648006800F00C00082813D151
:1020D000F348001F006800F48000B0F5800F0BD1BA
:1020E000EF4808380068C0F34040002859D06068C5
:1020F000002856D10120D9E700BF6068B0F5803FC5
:1021000008D1E7480838006840F48030E4490839CD
:1021100008601EE06068B0F5A02F0DD1E0480838D7
:10212000006840F48020DE490839086008460068ED
:1021300040F4803008600CE0D9480838006820F48A
:102140008030D749083908600846006820F48020AC
:10215000086000BF606890B1FFF73AFD054606E0F1
:10216000FFF736FD401B642801D903209EE7CC48C9
:1021700008380068C0F340400028F1D011E0FFF7B4
:1021800027FD054606E0FFF723FD401B642801D923
:1021900003208BE7C24808380068C0F3404000289D
:1021A000F1D1207800F0020002285FD1BC4800681D
:1021B00000F00C0058B1BA48006800F00C00082884
:1021C0001CD1B748001F006800F48000B0B9B448C3
:1021D00008380068C0F3400020B1E068012801D051
:1021E000012063E7AE480838006820F0F800216954
:1021F00040EAC100AA490839086037E0E06800B346
:102200000120A8490860FFF7E3FC054606E0FFF758
:10221000DFFC401B022801D9032047E7A04808380B
:102220000068C0F340000028F1D09D4808380068DD
:1022300020F0F800216940EAC10099490839086096
:1022400014E0002097490860FFF7C2FC054606E04D
:10225000FFF7BEFC401B022801D9032026E7904867
:1022600008380068C0F340000028F1D1207800F061
:10227000080008282CD16069A8B101208A490860AB
:10228000FFF7A6FC054606E0FFF7A2FC401B02286C
:1022900001D903200AE782486C300068C0F340008F
:1022A0000028F1D014E000207F490860FFF790FC7F
:1022B000054606E0FFF78CFC401B022801D90320ED
:1022C000F4E677486C300068C0F340000028F1D194
:1022D000207800F00400042870D1002770483830BE
:1022E000006800F0805090B900BF002000906C485A
:1022F0003830006840F0805069493831086008463D
:10230000006800F08050009000BF00BF01276748C0
:10231000006800F48070B0B96448006840F48070D0
:1023200062490860FFF754FC054606E0FFF750FCE1
:10233000401B022801D90320B8E65C48006800F47D
:1023400080700028F2D000BFA068012808D154484E
:102350006830006840F001005149683108601DE0B4
:10236000A06805280DD14E486830006840F0040090
:102370004B49683108600846006840F00100086079
:102380000CE047486830006820F00100444968319B
:1023900008600846006820F00400086000BFA068DC
:1023A000A8B1FFF715FC054609E0FFF711FC401B3B
:1023B00041F28831884202D9032077E626E0384886
:1023C00068300068C0F340000028EED013E0FFF74B
:1023D000FFFB054608E0FFF7FBFB401B41F288319D
:1023E000884201D9032061E62D4868300068C0F3B7
:1023F00040000028EFD1012F07D12948383000686C
:1024000020F0805026493831086000BFA0690028BC
:1024100045D02348006800F00C0008285DD0A06972
:10242000022845D100201F490866FFF7D1FB054669
:1024300006E0FFF7CDFB401B022801D9032035E65B
:10244000174808380068C0F340600028F1D1D4E98B
:1024500007010843616A40EA81110122A06AC2EBC8
:10246000500041EA00412C20005D41EA00600C4927
:10247000091F086001200B490866FFF7A9FB054604
:1024800006E0FFF7A5FB401B022801D903200DE65B
:10249000034808380068C0F340600028F1D049E0E4
:1024A0000838024000004742800E4742007000405A
:1024B000002021490866FFF78BFB054606E0FFF781
:1024C00087FB401B022801D90320EFE51B48006869
:1024D000C0F340600028F2D12CE0A069012800D1AF
:1024E000E4E51648001D0668A069012820D006F41E
:1024F0008001E06981421BD106F03F01206A8142E0
:1025000016D147F6C0703040616AB0EB811F0FD121
:1025100006F440310122A06AC2EB5000B1EB004F3B
:1025200006D106F070612C20005DB1EB006F01D088
:102530000120BBE50020B9E5000047420038024019
:1025400070B504462546681EB0F1807F01D3012096
:102550000FE0681E4FF0E02148610F214FF0FF307F
:1025600002F080FF00204FF0E02188610720086121
:10257000002070BD7047704730B502460B4600BF63
:1025800092F83C00012801D1022030BD012082F8E0
:102590003C0000BF022082F83D00106844681068CB
:1025A000816824F070041868044310684460184D72
:1025B0001068A8421BD01068B0F1804F17D0154D9D
:1025C0001068A84213D0144D1068A8420FD0134DC4
:1025D0001068A8420BD0124D1068A84207D0114DC8
:1025E0001068A84203D0104D1068A84205D121F010
:1025F00080015868014310688160012082F83D0025
:1026000000BF002082F83C0000BF00BFBDE7000013
:10261000000001400004004000080040000C0040A1
:1026200000040140004001400018004010B504467D
:102630000CB9012010BD94F83D0028B9002084F8A1
:102640003C00204600F026F8022084F83D00211DC1
:10265000206801F039F9012084F8460000BF84F8B1
:102660003E0001213F2001554020015541200155E8
:1026700000BF00BF012084F84200432001554420E0
:1026800001554520015500BF012084F83D00002080
:10269000D0E7000038B5044619492068884218D1AF
:1026A00000BF002000901748006840F00100154965
:1026B00008600846006800F00100009000BF00BFFD
:1026C000002202211920FFF715FB1920FFF7FEFA5F
:1026D00015E00D492068884211D100BF002000900C
:1026E0000848001F006840F004000649091F086000
:1026F0000846006800F00400009000BF00BF38BD2D
:10270000000001404438024000080040014691F8B2
:102710003D00012801D001207047022081F83D00D2
:102720000868C06840F001000B68D8601A4B086860
:1027300098421BD00868B0F1804F17D0174B08683B
:10274000984213D0164B086898420FD0154B086872
:1027500098420BD0144B0868984207D0134B086876
:10276000984203D0124B086898420CD108688068E0
:1027700000F00702062A0CD00868006840F001004B
:102780000B68186005E00868006840F001000B68FD
:1027900018600020C0E70000000001400004004075
:1027A00000080040000C00400004014000400140CF
:1027B000001800402DE9F04104460D46002700BFF7
:1027C00094F83C00012802D10220BDE8F0810120EC
:1027D00084F83C0000BF022084F83D002068866831
:1027E00026F0770626F47F46206886602868502801
:1027F00033D00CDC202850D004DC00284BD010282B
:1028000051D149E0302849D040284CD139E06028E6
:102810002DD0702807D0B0F5805F03D0B0F5005FF1
:1028200041D10DE041E0D5E902136A68206801F06A
:10283000BBF82068866846F077062068866034E03A
:10284000D5E902136A68206801F0AEF82068806854
:1028500040F480402168886027E0EA686968206861
:1028600001F098F95021206801F0A9F81DE0EA680C
:102870006968206801F0A1F96021206801F09FF8E3
:1028800013E0EA686968206801F084F94021206853
:1028900001F095F809E000BF00BF00BF296820687B
:1028A00001F08DF801E0012700BF00BF012084F88E
:1028B0003D0000BF002084F83C0000BF384684E79C
:1028C000704770B504462068C5682068066906F040
:1028D0000200022819D105F00200022815D1401F7C
:1028E00021680861012020772068806900F00300DA
:1028F00018B12046FFF7E4FF05E0204600F0C8F8D5
:10290000204600F07CF90020207706F0040004281F
:1029100019D105F00400042815D1C04321680861CD
:10292000022020772068806900F4407018B12046AA
:10293000FFF7C6FF05E0204600F0AAF8204600F0A9
:102940005EF90020207706F00800082819D105F06C
:102950000800082815D1C0432168086104202077A9
:102960002068C06900F0030018B12046FFF7A8FFF7
:1029700005E0204600F08CF8204600F040F90020E9
:10298000207706F01000102819D105F0100010284B
:1029900015D1C04321680861082020772068C069EC
:1029A00000F4407018B12046FFF78AFF05E020468A
:1029B00000F06EF8204600F022F90020207706F0A3
:1029C000010048B105F0010030B16FF0010021684D
:1029D0000861204600F014F906F08000802809D133
:1029E00005F08000802805D1C04321680861204699
:1029F000FFF7C0FD06F04000402809D105F0400077
:102A0000402805D1C04321680861204600F004F940
:102A100006F02000202809D105F02000202805D14B
:102A2000C043216808612046FFF7A5FD70BD000086
:102A300010B586B00446142101A8FDF71FFC11490A
:102A4000206888421CD100BF002000900E4800681A
:102A500040F008000C4908600846006800F00800D3
:102A6000009000BF00BF8814019002200290002057
:102A7000039004900220059001A90448FEF79AFFF4
:102A800006B010BD0008004030380240000C024083
:102A900070472DE9F04104460D461646002700BF59
:102AA00094F83C00012802D10220BDE8F081012009
:102AB00084F83C0000BF36B1042E1BD0082E31D064
:102AC0000C2E5ED145E02946206800F081FF206889
:102AD000806940F00800216888612068806920F0E2
:102AE0000400216888612068806929690843216899
:102AF000886148E02946206800F0A2FF20688069CC
:102B000040F40060216888612068806920F480605A
:102B10002168886120688069296940EA012021686C
:102B2000886130E02946206800F0C8FF2068C0694D
:102B300040F008002168C8612068C06920F00400E6
:102B40002168C8612068C069296908432168C86193
:102B500019E02946206800F0EDFF2068C06940F4C4
:102B600000602168C8612068C06920F48060216825
:102B7000C8612068C069296940EA01202168C861EC
:102B800001E0012700BF00BF00BF002084F83C0027
:102B900000BF384689E710B504460CB9012010BDC6
:102BA00094F83D0028B9002084F83C00204600F04D
:102BB00025F8022084F83D00211D206800F084FEE5
:102BC000012084F8460000BF84F83E0001213F2028
:102BD0000155402001554120015500BF00BF012093
:102BE00084F84200432001554420015545200155F9
:102BF00000BF012084F83D000020D0E770477047F7
:102C0000034A0168914202D10121024A11707047C2
:102C100000000140180000207047F8B504460D463A
:102C2000164694F8420020282DD105B10EB9012096
:102C3000F8BD01202063002060633246294620460B
:102C400001F0D4FA0746206B012819D100BF0020FB
:102C5000009020680068009020684068009000BFE5
:102C600000BF00BF00BF21680C3151E8001F41F0D8
:102C7000100021680C3141E80002002AF3D100E085
:102C800001273846D4E70220D2E7000070B5054698
:102C90000C460B492868884211D1002C0FDD2246D2
:102CA00008490948FDF7D1FA0020074908550120D5
:102CB00006490870802203490548FFF7AEFF70BD42
:102CC00000140140480100205804002004000020A6
:102CD00090020020704700002DE9F84F044620685C
:102CE00005682068C668206847694FF00009CA4631
:102CF00005F00F09B9F1000F0AD105F0200038B135
:102D000006F0200020B1204601F0C5F8BDE8F88F9C
:102D1000B9F1000F7CD007F0010018B906F49070EB
:102D2000002875D005F0010030B106F4807018B1AC
:102D3000606C40F00100606405F0040030B107F001
:102D4000010018B1606C40F00200606405F0020000
:102D500030B107F0010018B1606C40F0040060640D
:102D600005F0080048B106F0200010B907F0010096
:102D700018B1606C40F008006064606C002846D0B8
:102D800005F0200028B106F0200010B1204601F027
:102D900082F820684069C0F3801A606C00F0080077
:102DA00010B9BAF1000F2DD0204601F01BF82068B1
:102DB000406900F04000402820D100BF00BF2168DA
:102DC000143151E8001F21F040002168143141E81E
:102DD0000002002AF3D100BFE06B50B17F48E16BE5
:102DE0000865E06BFEF7F1FB88B1E06B016D884789
:102DF0000DE02046FFF76EFF09E009E02046FFF7EF
:102E000069FF04E02046FFF765FF002060647DE76E
:102E1000206B012878D105F01000002874D006F04E
:102E200010000028FAD000BF002000902068006841
:102E3000009020684068009000BF00BF2068406993
:102E400000F04000402870D1E06B006840681FFA35
:102E500080F8B8F1000F58D0A08D404555DDA4F89A
:102E60002E80E06BC069B0F5807F43D000BF00BF0B
:102E700021680C3151E8001F21F4807021680C3169
:102E800041E80002002AF3D100BF00BF00BF216863
:102E9000143151E8001F21F001002168143141E88C
:102EA0000002002AF3D100BF00BF00BF2168143127
:102EB00051E8001F21F040002168143141E8000270
:102EC000002AF3D100BF202084F8420000202063B4
:102ED00000BF00BF21680C3151E8001F21F0100035
:102EE00021680C3141E80002002AF3D100BFE06BF9
:102EF000FEF715FB02206063A08DE28D801A81B27F
:102F00002046FFF7C3FE0EE052E0A08D40450AD1F7
:102F1000E06BC069B0F5807F05D102206063A18DB0
:102F20002046FFF7B3FEF1E6FFE7A08DE18D401AE2
:102F30001FFA80F8E08DD0B3B8F1000F37D000BF92
:102F400000BF21680C3151E8001F21F49070216806
:102F50000C3141E80002002AF3D100BF00BF00BFDE
:102F60002168143151E8001F21F00100216814315B
:102F700041E80002002AF3D100BF202084F842007B
:102F80000020206300BF00BF21680C3151E8001F02
:102F900021F0100021680C3141E80002002AF3D131
:102FA00000BF0220606341462046FFF76FFEADE69A
:102FB00005F0800030B106F0800018B1204601F025
:102FC00081F9A3E605F0400030B106F0400018B1E9
:102FD000204600F03DFF99E600BF97E6E33B00087E
:102FE00010B504460CB9012010BDA06900B100E085
:102FF00000BF94F8410028B9002084F84000204622
:1030000000F02AF8242084F841002068C06820F4E9
:1030100000502168C860204600F0D2FF2068006997
:1030200020F49040216808612068406920F02A005F
:10303000216848612068C06840F400502168C86079
:1030400000206064202084F8410084F842000020C1
:10305000606300BFC8E7000010B586B004461421C5
:1030600001A8FDF70BF97F492068884278D100BF9D
:10307000002000907C48006840F400307A490860E5
:103080000846006800F40030009000BF00BF00BF99
:103090000020009074481038006840F00800724921
:1030A000103908600846006800F00800009000BF72
:1030B00000BF6020019002200290002003900320B6
:1030C00004900720059001A96848FEF773FC684842
:1030D000684908604FF000604860002165488160E1
:1030E000C1604FF480610161002141618161C16172
:1030F0004FF48031016200214162FEF79BFB08B171
:10310000FDF7D2FC00BF5B48E063846300BF584812
:103110001830594908604FF0006048604021564817
:1031200081600021C1604FF4806101610021416133
:103130008161C16101624162FEF77CFB08B1FDF76C
:10314000B3FC00BF4C48A063846300BF002203218E
:103150002620FEF7CFFD2620FEF7B8FD80E0FFE732
:103160004649206888427BD100BF002000903E483D
:10317000001D006840F020003B49091D086008461A
:10318000006800F02000009000BF00BF00BF0020DA
:10319000009035481038006840F04000324910393E
:1031A00008600846006800F04000009000BF00BFC3
:1031B0004FF48440019002200290002003900320ED
:1031C00004900820059001A92D48FEF7F3FB2D4837
:1031D0002D4908608005486000212B488160C1604E
:1031E0004FF480610161002141618161C1614FF44F
:1031F0000031016200214162FEF71CFB08B1FDF7BE
:1032000053FC00BF2048E063846300BF1D48783052
:103210001E4908604FF02060486040211B488160D3
:103220000021C1604FF48061016100214161816131
:10323000C1614FF48031016200214162FEF7FAFA68
:1032400008B1FDF731FC00BF1048A063846300BFE4
:10325000002203214720FEF74DFD4720FEF736FDF3
:1032600006B010BD0044004040380240000C02404F
:1032700088600240D802002038030020001401407A
:10328000001802402864024098030020F803002040
:1032900070B504460D46164694F8420020280BD11E
:1032A00005B10EB9012070BD0020206332462946C9
:1032B000204600F09BFFF6E70220F4E770477047D6
:1032C0002DE9F84F04460E46174699464FF0000A7E
:1032D00094F84100202850D106B117B90120BDE86B
:1032E000F88F00206064212084F84100FEF770FC14
:1032F0008246A784E784A068B0F5805F04D1206986
:1033000010B90025B04602E035464FF000081EE037
:103310005346002280212046CDF8009001F002F8AB
:1033200020B1202084F841000320D8E745B9B8F83F
:103330000000C0F308002168486008F1020803E0BB
:103340002878216848606D1CE08C401EE084E08C89
:103350000028DDD15346002240212046CDF80090C0
:1033600000F0E0FF20B1202084F841000320B6E700
:10337000202084F841000020B1E70220AFE70000E0
:10338000F7B50446154694F8410020283ED101982F
:1033900000B10DB90120FEBD01982062A584E5842D
:1033A00000206064212084F841001948A16BC863A3
:1033B0001848A16B08641848A16BC8640020A16B71
:1033C000086501AE23681A1D31682B46A06BFEF715
:1033D000A7FA30B110206064202084F84100012059
:1033E000D9E76FF040002168086000BF00BF216886
:1033F000143151E8001F41F080002168143141E888
:103400000002002AF3D100BF0020C4E70220C2E777
:103410001D3D0008753D0008F53B000870477047EA
:1034200000BFFEE710B51F481F490860092048602B
:1034300000211D488160C1604FF4803101610901A4
:10344000416100210176417681760121C17600211A
:1034500001774177FDF768FE08B1FDF725FB40F2E3
:103460009973002211461048FDF7C8F908B1FDF71D
:103470001BFB4FF4F163002201210B48FDF7BEF95D
:1034800008B1FDF711FB02210748FDF7D7F908B194
:10349000FDF70AFB0448FDF75BFA08B1FDF704FBF2
:1034A00010BD0000006400406800002010B52848EE
:1034B0002849086009204860002126488160C160D1
:1034C0004FF48031016109014161002101764176AB
:1034D0008176C17601774177FDF726FE08B1FDF7C9
:1034E000E3FA40F2012300220E211A48FDF786F983
:1034F00008B1FDF7D9FA40F2022300220F21154846
:10350000FDF77CF908B1FDF7CFFA40F20323002262
:1035100010211048FDF772F908B1FDF7C5FA4FF414
:103520000173002211210B48FDF768F908B1FDF77E
:10353000BBFA02210748FDF781F908B1FDF7B4FA9B
:103540000448FDF705FA08B1FDF7AEFA10BD00001A
:10355000006800409000002008B500BF00200090E7
:103560001E48006840F400101C49086008460068C6
:1035700000F40010009000BF00BF00BF00200090CA
:103580000846006840F4800008600846006800F4BF
:103590008000009000BF00BF002204211020FEF731
:1035A000A9FB1020FEF792FB012204211120FEF757
:1035B000A1FB1120FEF78AFB002203213920FEF730
:1035C00099FB3920FEF782FB012203214520FEF7FB
:1035D00091FB4520FEF77AFB08BD00003038024021
:1035E00000B587B0142102A8FCF748FE00BF0020F8
:1035F00001903548006840F04000334908600846B3
:10360000006800F04000019000BF00BF00BF002034
:1036100001900846006840F0010008600846006814
:1036200000F00100019000BF00BF00BF002001902A
:103630000846006840F0080008600846006800F08E
:103640000800019000BF00BF00BF002001900846A5
:10365000006840F0800008600846006800F08000C4
:10366000019000BF00BF00BF002001900846006825
:1036700040F0020008600846006800F00200019077
:1036800000BF00BF012202211048FEF79BFA022072
:10369000029001200390002004900220059002A9CE
:1036A0000A48FEF787F94FF48070029002200390D9
:1036B00000200490032005900720069002A90448EA
:1036C000FEF778F907B000BD30380240001802401C
:1036D000000C024000B587B00020039004900590D4
:1036E000069001900290174817490860B32048607F
:1036F00000211548816040F2CF71C1600021016155
:10370000416180218161FEF791FF08B1FDF7CCF99D
:103710004FF48050039003A90B48FFF74BF808B112
:10372000FDF7C2F900200190029001A90648FEF7BA
:1037300023FF08B1FDF7B8F9034800F025FA07B0F8
:1037400000BD000000000140B800002000B58DB0B1
:10375000002009900A900B900C90079008901C2173
:103760006846FCF78BFD214821490860B32048607A
:1037700000211F48816044F61F61C1600021016182
:1037800080218161FEF752FF08B1FDF78DF94FF4FA
:103790008050099009A91648FFF70CF808B1FDF709
:1037A00083F91348FFF7F7F908B1FDF77DF9002019
:1037B0000790089007A90E48FEF7DEFE08B1FDF756
:1037C00073F96020009040F2DC50019000200290DC
:1037D0000490002269460648FFF75BF908B1FDF73F
:1037E00063F90348FFF724F90DB000BD000800405D
:1037F0000001002010B51248124908604FF4E13072
:10380000486000210F488160C16001610C21416165
:1038100000218161C161FFF7E3FB08B1FDF744F9C5
:103820004FF4807208490748FFF732FD05480068E9
:10383000C06840F0100003490968C86010BD00006E
:1038400000440040480200205805002010B50D48F3
:103850000D4908604FF4E130486000210A4881605A
:10386000C16001610C21416100218161C161FFF7EB
:10387000B7FB08B1FDF718F9802204490248FFF7A9
:10388000CCF910BD00140140900200204801002036
:1038900000BFFEE700BFFEE77047704710B5FEF7B8
:1038A0009DF910BD0348006840F4700001490860AC
:1038B0007047000088ED00E010B50248FFF701F8FE
:1038C00010BD0000B800002010B502682B4B9842D4
:1038D0000ED0B0F1804F0BD0294B984208D0294B25
:1038E000984205D0284B984202D0284B984203D1E9
:1038F00022F070024B681A43204B984220D0B0F15E
:10390000804F1DD01E4B98421AD01E4B984217D0A4
:103910001D4B984214D01D4B984211D01C4B98421D
:103920000ED01C4B98420BD01B4B984208D01B4B1F
:10393000984205D01A4B984202D01A4B984203D1B4
:1039400022F44072CB681A4322F080034C6943EAA8
:1039500004028B68C3620B688362084B984202D0F2
:103960000A4B984201D10B690363036843F00403D7
:10397000036001234361026010BD000000000140AC
:103980000004004000080040000C0040000401401A
:103990000040014000440140004801400018004040
:1039A000001C00400020004030B50C46816821F426
:1039B0007F4142EA032525432943816030BD0A4601
:1039C000816821F0700142F007031943816070475C
:1039D00030B5026A056A25F001050562436884690D
:1039E00024F0700424F003040D682C4322F002023A
:1039F0008D682A43104DA84200D103E00F4DA84224
:103A000006D100BF22F00802CD682A4322F004024A
:103A1000094DA84202D0094DA84207D123F4807372
:103A200023F400734D692B438D692B4343608461FC
:103A30004D684563026230BD000001400004014052
:103A400030B5026A056A25F010050562436884698D
:103A500024F4E04424F440740D6844EA052422F080
:103A600020028D6842EA0512124DA84200D103E0FF
:103A7000114DA84207D100BF22F08002CD6842EA72
:103A8000051222F040020B4DA84202D00A4DA84276
:103A900009D123F4806323F400634D6943EA85036D
:103AA0008D6943EA8503436084614D6885630262E2
:103AB00030BD0000000001400004014030B5026A42
:103AC000056A25F4807505624368C46924F07004B2
:103AD00024F003040D682C4322F400728D6842EA3E
:103AE0000522124DA84200D103E0114DA84207D192
:103AF00000BF22F40062CD6842EA052222F480620F
:103B00000A4DA84202D00A4DA84209D123F480539D
:103B100023F400534D6943EA05138D6943EA051305
:103B20004360C4614D68C563026230BD000001405E
:103B30000004014030B5036A056A25F4805505622A
:103B40004468C26922F4E04222F440720D6842EAFD
:103B5000052223F400538D6843EA0533084DA8423B
:103B600002D0084DA84204D124F480444D6944EAAF
:103B700085144460C2614D680564036230BD000075
:103B8000000001400004014010B504462046FEF745
:103B9000BDFD10BD30B50B461446026A056A25F01E
:103BA00001050562816921F0F00141EA041122F06A
:103BB0000A021A438161026230BD30B50B461446D9
:103BC000026A056A25F010050562816921F47041D9
:103BD00041EA043122F0A00242EA0312816102624A
:103BE00030BD70B50446A56B0020E8852846FFF778
:103BF00071F870BD70B506460025B46B2068406949
:103C0000C0F3C01594F84100212805D125B100204A
:103C1000E084204600F02CF920684069C0F380154C
:103C200094F84200222805D125B10020E0852046E5
:103C300000F0D8F8606C40F0100060642046FFF798
:103C400049F870BD70B50546AC6B2868006800F493
:103C50008070002842D1E08500BF00BF21680C3190
:103C600051E8001F21F4807021680C3141E8000206
:103C7000002AF3D100BF00BF00BF2168143151E812
:103C8000001F21F001002168143141E80002002AE0
:103C9000F3D100BF00BF00BF2168143151E8001FFD
:103CA00021F040002168143141E80002002AF3D1DC
:103CB00000BF202084F84200206B01280ED100BFF5
:103CC00000BF21680C3151E8001F21F0100021686D
:103CD0000C3141E80002002AF3D100BF00206063EC
:103CE000206B012804D1A18D2046FEF7CFFF02E012
:103CF0002046FFF7E3FA70BD70B50546AC6B0120B6
:103D00006063206B012805D1A08D41082046FEF795
:103D1000BDFF02E02046FFF7D2FA70BD70B5054640
:103D2000AC6B2868006800F48070F8B90020E0846B
:103D300000BF00BF2168143151E8001F21F080004E
:103D40002168143141E80002002AF3D100BF00BF0E
:103D500000BF21680C3151E8001F41F0400021688C
:103D60000C3141E80002002AF3D102E02046FFF7BF
:103D700055FB70BD70B50446A56B2846FFF74FFB99
:103D800070BD00000FB4F8B50546A86B18B9002047
:103D9000F8BC5DF814FB95F84100202801D0002004
:103DA000F6E708A8009080210D48009B079A01F0D3
:103DB0003BFB044600200090002C0EDD802C01DA35
:103DC000A0B200E07F200646324605492846FFF7AC
:103DD000D7FA08B90120DBE700BF0020D8E70000D0
:103DE000F806002000BF00BF02680C3252E8002F26
:103DF00022F4907102680C3242E80013002BF3D1D8
:103E000000BF00BF00BF0268143252E8002F22F04A
:103E100001010268143242E80013002BF3D100BF05
:103E2000016B01290ED100BF00BF02680C3252E8BD
:103E3000002F22F0100102680C3242E80013002B20
:103E4000F3D100BF202180F84210002101637047A8
:103E500010B504462068C06820F040002168C860A2
:103E6000202084F841002046FFF7D8FA002010BD3A
:103E700000BF00BF02680C3252E8002F22F0C001E0
:103E800002680C3242E80013002BF3D100BF20215E
:103E900080F841107047F8B504460025002694F8D4
:103EA0004200222873D1A068B0F5805F0BD1206951
:103EB00048B9A66A20684068C0F308003080A06A4C
:103EC000801CA06214E0A56AA068B0F5805F03D0F2
:103ED000A06828B9206918B920684068287004E0F3
:103EE0002068406800F07F002870A06A401CA06233
:103EF000E08D401E80B2E085002846D12068C06871
:103F000020F020002168C8602068C06820F480701C
:103F10002168C8602068406920F00100216848617C
:103F2000202084F8420000206063206B012826D105
:103F30000020206300BF00BF21680C3151E8001F42
:103F400021F0100021680C3141E80002002AF3D171
:103F500000BF2068006800F0100010280AD100BFE0
:103F60000020009020680068009020684068009061
:103F700000BF00BFA18D2046FEF788FE02E020466C
:103F8000FFF79CF90020F8BD01E00020FBE70220CC
:103F9000F9E72DE9F04104460D4616461F460CB1DF
:103FA00005B116B90020BDE8F0813B4632462946EE
:103FB0002046FFF785F908B90120F4E70020F2E771
:103FC0002DE9F84F04462068006920F44050E1686C
:103FD0000843216808612169A068084361690843B2
:103FE000E169084300902068C06849F20C61884389
:103FF000009908432168C8602068406920F4407037
:10400000A16908432168486176492068884203D045
:1040100075492068884203D1FDF7DCFF814602E044
:10402000FDF7C8FF8146E069B0F5004F6CD1022072
:104030006168A0FB015003461920A9FB00700146EE
:104040002A463846FCF7D0F86421B0FBF1F04FEA7D
:10405000001A02206168A0FB01510B461920A9FB40
:1040600000712A463846FCF7BFF883460220616893
:10407000A0FB015003461920A9FB00712A463846CF
:10408000FCF7B2F86421B0FBF1F000EBC00101EBEA
:104090000010ABEB8000322101EBC0006421B0FBCB
:1040A000F1F000F0F8000AEB400A02206168A0FB82
:1040B000015003461920A9FB007001462A463846E4
:1040C000FCF792F8834602206168A0FB015003468A
:1040D0001920A9FB00712A463846FCF785F86421AF
:1040E000B0FBF1F000EBC00101EB0010ABEB800086
:1040F000322101EBC0006421B0FBF1F000F00700B9
:104100005044216888606AE004206168A0FB015087
:1041100003461920A9FB007001462A463846FCF7E1
:1041200063F8824604206168A0FB01500346192011
:10413000A9FB007001462A463846FCF755F8642171
:10414000B0FBF1F000EBC00101EB0010AAEB800026
:10415000322101EB00106421B0FBF1F000F0F00A15
:1041600004206168A0FB017003461920A9FB0051DF
:104170003A462846FCF738F86421B0FBF1F00AEB28
:10418000001A04206168A0FB01510B461920A9FB0D
:1041900000712A463846FCF727F8834604206168F8
:1041A000A0FB015003461920A9FB007001462A46D6
:1041B0003846FCF719F86421B0FBF1F000EBC001C0
:1041C00001EB0010ABEB8000322101EB0010642109
:1041D000B0FBF1F000F00F00504421688860BDE8AA
:1041E000F88F0000001001400014014077B581B045
:1041F000044615460298A062A5850020606422202E
:1042000084F842002C48E16BC8632C48E16B0864D9
:104210002B48E16BC8640020E16B086502AE326890
:104220002368191D2B46E06BFDF77AFB38B110208F
:104230006064202084F84200012004B070BD00BFFB
:10424000002000902068006800902068406800907E
:1042500000BF00BF206970B100BF00BF21680C31F2
:1042600051E8001F41F4807021680C3141E80002E0
:10427000002AF3D100BF00BF00BF2168143151E80C
:10428000001F41F001002168143141E80002002ABA
:10429000F3D100BF00BF00BF2168143151E8001FF7
:1042A00041F040002168143141E80002002AF3D1B6
:1042B00000BF0020C1E70000453C0008F93C0008B1
:1042C000F53B0008014691F84100212828D1886873
:1042D000B0F5805F0BD1086948B90A6A1088C0F34D
:1042E00008000B685860086A801C086205E00B6AC9
:1042F000581C086218780B685860C88C401E80B241
:10430000C88458B90868C06820F080000B68D8607D
:104310000868C06840F040000B68D8600020704713
:104320000220FCE72DE9F84304460D46174698465F
:10433000089E31E0701C70B3FDF74AFCA0EB08004A
:10434000B04200D816B90320BDE8F8832068C068E1
:1043500000F00400F8B1802D1ED0402D1CD0206844
:104360000068C0F3C000B0B100BF0020009020681A
:104370000068009020684068009000BF00BF2046A1
:10438000FFF730FD0820606400BF002084F8400083
:1043900000BF0120D8E7FFE7206800682840A84256
:1043A00001D1012000E00020B842C3D00020CBE7BB
:1043B0000FB4F8B5054608A8009080210D48009B71
:1043C000079A01F031F8044600200090002C0EDD21
:1043D000802C01DAA0B200E07F2006460F2332468F
:1043E00004492846FFF7D5FDF8BC5DF814FB002012
:1043F000FAE700007806002010B50248FEF76CFCD2
:1044000010BD00004802002010B50248FEF764FC11
:1044100010BD00009002002000BFFEE700B5A5B06F
:104420009FED1A2ADFED191A9FED191ADFED190A0F
:104430009FED190A13A800F069FC9FED182ADFED23
:10444000181A9FED141ADFED130A9FED160A01A842
:1044500000F05CFC13AA01A9134800F0AEFC13AAFB
:1044600001A9124800F0A9FC13AA01A9104800F004
:10447000A4FC13AA01A90F4800F09FFC0EA1174845
:10448000FFF796FF012025B000BD000000007A452F
:104490000AD7233C000000000AD7A33D0000FA44DD
:1044A00000007A440AD7A33C90090020D0080020DD
:1044B000500A0020100B00204D3230303620696E3B
:1044C000697469616C697A656420696E20706172D3
:1044D000616C6C656C2E0D0A000000004802002023
:1044E00000B52DED068B8BB00020079007A83D4B43
:1044F00008AA09A900900AA801F092FC0898FBF705
:10450000D9FE41EC1A0B0998FBF7D4FE41EC180BCD
:104510000A98FBF7CFFE41EC190B9DF81C003149BE
:104520000978CDE904108DED02AB8DED008B53ECD5
:10453000192B2DA13548FFF725FC9DED081ADDED5F
:10454000090A9DED0A0A324800F052FA254800781F
:1045500020B1012816D002283AD127E02D48007852
:10456000401C2C490870DFED2C0A9FED2C0A2C48CA
:1045700000F026FEDFED280A9FED280A294800F00A
:104580001FFE26E023480078401C22490870DFED1A
:10459000260A9FED260A224800F012FEDFED220ACD
:1045A0009FED230A1F4800F00BFE12E0002019497E
:1045B0000870DFED1D0A9FED1F0A194800F000FE8C
:1045C000DFED190A9FED1C0A164800F0F9FD00E026
:1045D00000BF00BF9DF81C0000F016F90BB0BDEC49
:1045E000068B00BD65000020783A25326620793AB6
:1045F00025326620773A253266206D6F643A25644D
:1046000020636D643A25640D0A0000004802002012
:1046100098070020670000205555053F0000000066
:1046200040080020640800205555853E00C0DAC4CB
:1046300000C0DA4400C041C400C0414410B50024A9
:1046400000F038F82044C4B2FFF7E8FE2044C4B2BA
:10465000022C04D105A10E48FFF7AAFE05E00DA12A
:104660000B48FFF7A5FE00BFFEE710BD4D6F746F4E
:104670007220496E697469616C697A6174696F6EE0
:1046800020636F6D706C657465640D0A0000000036
:10469000480200204D6F746F7220496E6974696121
:1046A0006C697A6174696F6E206661696C65640D0E
:1046B0000A00000010B5002400F044F82044C4B201
:1046C00001210C4800F016FE2044C4B201210A4822
:1046D00000F010FE2044C4B2032C05D107A11048FD
:1046E000FFF766FE012010BD0EA10D48FFF760FE2A
:1046F0000020F8E788080020AC080020444D33353E
:10470000313920496E697469616C697A6174696FC5
:104710006E20636F6D706C657465640D0A00000037
:1047200048020020444D3335313920496E6974699F
:10473000616C697A6174696F6E206661696C656429
:104740000D0A000010B5002401211A4800F0D2FD26
:104750002044C4B201211748243000F0CBFD20448E
:10476000C4B201211348483000F0C4FD2044C4B253
:10477000012110486C3000F0BDFD2044C4B201217D
:104780000D4800F0B7FD2044C4B201210B4800F0F1
:10479000B1FD2044C4B2062C05D109A11148FFF790
:1047A00007FE012010BD10A10E48FFF701FE0020FA
:1047B000F8E70000B007002040080020640800204F
:1047C0004368617373697320496E697469616C69C8
:1047D0007A6174696F6E20636F6D706C6574656467
:1047E0000D0A00004802002043686173736973205A
:1047F000496E697469616C697A6174696F6E20666B
:1048000061696C65640D0A0070B50646002420E0FD
:1048100046FA04F000F0010078B1294A32F8141089
:10482000284A02EB8402D2ED000AB0EE600A264A62
:1048300052F8240000F0D0FA09E0214A32F81410AE
:10484000214A52F824009FED210A00F0C5FA601CAD
:10485000C4B2042CDCDBC6F30115012D05D1BEEE7C
:10486000000A1B4800F08EFD0CE0022D05D1B6EECB
:10487000000A174800F086FD04E09FED140A144872
:1048800000F080FDB511012D07D1F6EE000A9FED75
:10489000110A114800F094FC10E0022D07D1DFED61
:1048A0000F0A9FED0F0A0C4800F08AFC06E0F6EEB6
:1048B000000A9FED060A084800F082FC70BD000067
:1048C0005C0000204C0000203C00002000000000A4
:1048D0008808002000204B45AC0800209A99993E9A
:1048E0000000C84300B593B0302107A8FBF7C6FC11
:1048F000142102A8FBF7C2FC00BF0020019025484C
:10490000006840F08050234908600846006800F0C5
:104910008050019000BF00BF002001901E48006839
:1049200040F440401C4908600846006800F44040DC
:10493000019000BF012007900004089002200D9014
:1049400041050E9106210F91B42110910221119180
:104950000421129107A8FDF7A5FB08B1FCF7A4F804
:10496000FDF71AFA08B1FCF79FF80F200290022019
:104970000390002004904FF4A05005904FF4805015
:104980000690052102A8FDF74DFA08B1FCF78CF856
:1049900013B000BD403802400070004010B502491D
:1049A000024800F057FC10BD58060020880800207F
:1049B00010B5024800F098FA10BD0000680600200B
:1049C00010B54FF40071084800F064FB0748007808
:1049D000322802D100200549087004480078401CA4
:1049E0000249087010BD0000900000206400002003
:1049F0002DE9F0412DED088B0446B0EE408AF0EE33
:104A0000608AB0EE419A94ED000AB1EE400AD4ED0E
:104A1000010A30EE600A60EE090AB0EE001A80EE7C
:104A2000810AF1EE480A70EEE80A30EE200AD4ED71
:104A3000050A80EE201AF0EE419A94ED000AD4EDBA
:104A4000010A30EE200A60EE090AB0EE001A80EE8C
:104A5000810A78EE680A30EEC00AD4ED050A80EECD
:104A6000201AB0EE41AA94ED000AD4ED010A30EE0E
:104A7000200A60EE090AB0EE001A80EE810AF1EE1B
:104A8000480A70EEE80A30EE200AD4ED050A80EEFE
:104A9000201AF0EE41AA94ED000AB1EE400AD4EDDE
:104AA000010A30EE600A60EE090AB0EE001A80EEEC
:104AB000810A78EE680A30EEC00AD4ED050A80EE6D
:104AC000201AB0EE41BAB0EE690A04F1180000F005
:104AD00059FC0546B0EE4B0A04F13C0000F052FCD4
:104AE0000646B0EE6A0A04F1600000F04BFC07468F
:104AF000B0EE4A0A04F1840000F044FC8046A81994
:104B000038444044C0B2BDEC088BBDE8F0810000E1
:104B100010B52DED048B0446B0EE408AF0EE608AAD
:104B2000B0EE419A84ED008AC4ED018A9FED1C0A23
:104B300084ED020A9FED1A0A84ED030A9FED180A1C
:104B400084ED040A84ED059A4FF4E06302221549CE
:104B500004F1180000F046FCA0F118044FF4E063E3
:104B60000422104904F13C0000F03CFCA0F13C049C
:104B70004FF4E06303220B4904F1600000F032FCC3
:104B8000A0F160044FF4E0630122064904F18400BF
:104B900000F028FCA0F184042046BDEC048B10BD7D
:104BA000000000006800002080ED070A7047000048
:104BB00090ED050AD0ED070A30EE600A80ED080A94
:104BC00090ED080AB0EEC00AD0ED110AB4EEE00A8A
:104BD000F1EE10FA0AD290ED080A80ED090A9FED75
:104BE000460A80ED0B0A9FED440A704790ED000ADB
:104BF000D0ED080A20EE200A80ED0A0A90ED0B0A9B
:104C0000D0ED010A90ED081A00EE810A80ED0B0A42
:104C100090ED080AD0ED090A30EE600AD0ED020AE4
:104C200020EE200A80ED0C0A90ED030AD0ED050A73
:104C300020EE200AD0ED040A90ED061A00EEC10A1B
:104C400080ED0D0A90ED0B0AD0ED0E0AB4EEE00AED
:104C5000F1EE10FA04DD90ED0E0A80ED0B0A10E083
:104C600090ED0B0AD0ED0E0AF1EE600AB4EEE00A08
:104C7000F1EE10FA05D290ED0E0AB1EE400A80ED89
:104C80000B0A90ED0A0AD0ED0B0A30EE200AD0EDA7
:104C90000C0A30EE200AD0ED0D0A30EE200A80ED2D
:104CA000100A90ED100AD0ED0F0AB4EEE00AF1EE12
:104CB00010FA04DD90ED0F0A80ED100A10E090ED7F
:104CC000100AD0ED0F0AF1EE600AB4EEE00AF1EE40
:104CD00010FA05D290ED0F0AB1EE400A80ED100AED
:104CE00090ED080A80ED090A90ED050A80ED060AAC
:104CF00090ED100A79E7000000000000D0ED050AF1
:104D0000C0ED060A80ED050A7047000080ED000A3C
:104D1000C0ED010A80ED021ADFED1A2AC0ED032A68
:104D2000DFED182AC0ED042ADFED162AC0ED052AB2
:104D3000DFED142AC0ED072ADFED122AC0ED082AA4
:104D4000DFED102AC0ED092ADFED0E2AC0ED0A2A98
:104D5000DFED0C2AC0ED0B2ADFED0A2AC0ED0C2A8C
:104D6000DFED082AC0ED0D2AC0ED0E1A80ED0F2AE6
:104D7000DFED042AC0ED102ADFED022AC0ED112A72
:104D8000704700000000000091ED000A80ED000A6D
:104D900091ED010A80ED010A91ED020A80ED020A0F
:104DA00091ED0E0AB0EEC00A80ED0E0A91ED0F0AE9
:104DB000B0EEC00A80ED0F0A704770B504460E468B
:104DC0001546314604F17800FFF7DEFF294604F16D
:104DD0007800FFF7D9FF70BD70B52DED028B04464A
:104DE000B0EE408A0D4694ED030A20EE080ADFED8E
:104DF0000E0A20EE200ADFED0D0A80EE201AF0EEFA
:104E0000418AB0EE680A04F17800FFF777FF00EE00
:104E1000105AB8EE400A84ED2D0A022084F82D00C5
:104E2000BDEC028B70BD0000000000460000B443E2
:104E300010B5024611B18879082801D0002010BDB4
:104E40000868B0F5007F03D90868B0F5027F01D982
:104E50000020F4E7087ACC7940EA042050828C7A6A
:104E6000487A44EA002000B290820C7BC87A44EA77
:104E7000002003B200EE103AB8EEC00ADFED190AC6
:104E800020EE200A82ED060AB2F91000002809DAA5
:104E9000508A00B21082508A908400201062906282
:104EA0000120CCE7908C548A001BB0F5805F03DDB5
:104EB000106A401C106208E0908C548A001B10F5A8
:104EC000805F02DA106A401E1062548A106A04EB96
:104ED0004030B2F91040001B9062508A908401204B
:104EE000ADE700006F12833A70B50546284600F022
:104EF000AFF804464CB1204600F06AF80646314649
:104F0000204600F07DF8012070BD0020FCE7000085
:104F100070B50446B4F9140000EE900AF8EEE00A09
:104F2000B0EE600A04F13000FFF73EFE04F13000FD
:104F3000FFF73EFEBDEEC00A10EE100A05B242F2C7
:104F40001070854201DB054603E00348854200DC22
:104F50000546284670BD0000F0D8FFFF10B52DEDC6
:104F6000028B044694ED0A0AB8EEC00AB0EE408AFD
:104F70002078032811D100202070B0EE480A04F1F7
:104F80007800FFF711FE04F17800FFF711FEF0EE54
:104F9000408A04F13000FFF7B1FE2078401C2070F9
:104FA000B4F9140000EE900AF8EEE00AB0EE600AE0
:104FB00004F13000FFF7F8FD04F13000FFF7F8FDD1
:104FC000BDEEC00A10EE100A00B2BDEC028B10BD9F
:104FD00010B5044694F82D0020B1012804D0022811
:104FE0000AD105E0002010BD2046FFF791FFFAE747
:104FF0002046FFF7B3FFF6E700BF00BF0020F2E74F
:1050000030B50246147A601EC41700EB9474A410E5
:10501000A0EB84046406230E107A082801DD00202A
:1050200030BD107A042807DCC1F307240648C454B5
:105030005C1C01550120F3E7C1F307240348C45465
:105040005C1C01550120EBE7230000203300002009
:1050500030B504462068B0F5007F17D92068B0F558
:10506000027F13D82088A0F2012085B2084850F8AA
:10507000250050B1064951F825002146FFF7D8FE1A
:1050800018B1034850F8250030BD00BF0020FBE7F1
:105090007807002070B505460C460DB9002070BD9C
:1050A0000026B4F5007F10D1052214492846FBF7ED
:1050B000FCFB0646002005E000221049C91D0A54E9
:1050C000411CC8B20828F7DB16E040F2FF1084420A
:1050D00010D105220A492846FBF7E7FB06460020C7
:1050E00005E000220649C91D0A54411CC8B208281F
:1050F000F7DB01E00020D2E73046D0E71C000020BB
:105100002C00002070B504460D4616460320207082
:10511000656026729FED200A84ED030A001F20823D
:1051200000206082A0829FED1D0A84ED060A207790
:105130002062A084A06284F82C0084F82D009FEDEA
:10514000182ADFED181A9FED181ADFED180A9FEDE7
:10515000180A04F13000FFF7D9FDA0F130049FEDEB
:10516000152ADFED151AB1EE041ADFED0C0AB2EEC6
:105170000E0A04F17800FFF7C9FDA0F17804207A47
:10518000012807DB207A082804DC207A401E0B491E
:1051900041F82040204670BD000010420000000091
:1051A00000A00C460080BB449A99993E0AD7233C44
:1051B0006666263F0000FA4400007A447807002023
:1051C00070B52DED028B84B00446B0EE408AF0EE4F
:1051D000608A94ED050A20EE080ADFED1D0A20EE34
:1051E000200A84ED080A94ED050A20EE280A84EDD1
:1051F000070AE569266A207E00F58070009000208D
:105200008DF804008DF8050008208DF80600F0B236
:105210008DF80700310A8DF80810310C8DF809104F
:10522000310E8DF80A10E9B28DF80B10290A8DF8AD
:105230000C10290C8DF80D10290E8DF80E1005227A
:1052400069462068FBF731FB04B0BDEC028B70BDF2
:1052500035FA8E3C2DE9F04305460C4614B9002082
:10526000BDE8F083E07900F00F06287EB04201D05F
:105270000020F5E7E07900092871617A207A41EA97
:105280000027A07A0101E07A41EA2018217BE07A28
:1052900000F00F0041EA0029607BA874A07BE8744D
:1052A0001022DFED120A9FED120A3946284600F05F
:1052B0004EF885ED020A0C22F3EE040ABBEE040A56
:1052C0004146284600F043F885ED030A0C22F2EE31
:1052D000040ABAEE040A4946284600F038F8BCEE43
:1052E000C00A10EE100A28820120B9E700409C4550
:1052F00000409CC57FB504460D46207E00900020EE
:105300008DF804008DF8050008208DF80600FF20B8
:105310008DF80700FF218DF808108DF809108DF821
:105320000A108DF80B108DF80C108DF80D10012D52
:1053300003D1FC218DF80E1002E0FD218DF80E1036
:10534000052269462068FBF7B0FA04B070BD034639
:10535000B0EE401A30EEC10AF0EE401AB0EE412A2B
:1053600000EE101AB8EEC00A60EE212A012090402B
:10537000401E00EE100AB8EEC03A82EE830A30EE0C
:10538000020A704730B52DED028B85B00446B0EEB1
:10539000408A94ED050A20EE080A84ED070A207E73
:1053A00000F50070019000208DF808008DF80900CC
:1053B00004208DF80A00E569E8B28DF80B00290A8F
:1053C0008DF80C10290C8DF80D10290E8DF80E108B
:1053D000052201A92068FBF768FA05B0BDEC028B35
:1053E00030BD000010B50160002404719FED0C0A6F
:1053F00080ED020A9FED0A0A80ED030A048284749C
:10540000C4749FED080A80ED050A027643839FED80
:10541000040A80ED070A9FED020A80ED080A10BD1C
:10542000000000002CA099417CB5044600201D46D8
:10543000164600290BD0491ECDE90041044B6A46AF
:105440002946304600F04AF9009A002111707CBDCF
:105450000B5E000802480068C0F30220704700009D
:105460000CED00E010B5002804DB0A07130E054A16
:10547000135406E00A07140E034A00F00F031B1F23
:10548000D45410BD00E400E018ED00E002E008C8CC
:10549000121F08C1002AFAD170477047002001E0AE
:1054A00001C1121F002AFBD17047000010B5B1EEF8
:1054B000041ADFED1C0A9FED1C0A1C48FFF728FBAD
:1054C0004FF4E06305221A491A48FFF78BFF4FF4A7
:1054D000E063062216491848FFF784FF4FF4F16392
:1054E000082213491548FFF77DFF4FF4F1630722A7
:1054F0000F491348FFF776FF012212491248FFF7C0
:1055000001FE02220F491148FFF7FCFD03220D495D
:105510000F48FFF7F7FD04220A490E48FFF7F2FD96
:1055200010BD0000CDCC0C3F14AE073F9807002003
:10553000680000204008002064080020880800203F
:10554000AC08002090000020D00800209009002026
:10555000500A0020100B00202DE9FF5F82B00021CF
:10556000DDE90430020DDDF840B0034318D044F605
:105570001050A2F2FF3242431514119801281FD097
:10558000A5EB0B00401C5FEA000A4FF000064E4FEF
:10559000DFF83891B046504615D5CAF1000413E043
:1055A000119801244AA3012801D16FEA0B01029846
:1055B000119AC0E90031C0E9024206B0BDE8F09F8F
:1055C000CBF10000DFE704460021404A491842EBD6
:1055D0000450CDE9001012E0E00707D032463B4608
:1055E00040464946FAF755FF8046894632463B46D3
:1055F00010461946FAF74DFF06460F466410002C78
:10560000EAD1DDE90401DDE90023BAF1000F06DA91
:10561000FAF73FFF42464B46FAF73BFF05E0FAF741
:10562000AAFF42464B46FAF7A6FF04460E46002262
:10563000284BFBF727F803D84FF0FF30014607E06F
:105640000022254B20463146FAF77CFEFBF702F894
:10565000102409E0002C0ADB0A220023FAF7C4FD1B
:10566000039B30321A55641E50EA0102F2D1641CC9
:10567000039AC4F111031444119A012A03D00122A0
:1056800008430DD10AE0084304D000204FF0110B6D
:10569000119072E7A3EB0B056D1E0DE05B4504DD79
:1056A0004FF0000205F1010504E003DA4FF00002BB
:1056B000A5F10105002AECD002981199C0E9023148
:1056C000C0E9004579E70000000014400000F03F09
:1056D000300000000000F0430000E03F2DE9FF4FE4
:1056E00095B09B468946064600250FE2252877D1CE
:1056F00000242746F84A0121059400E0044316F8E7
:10570000013F203B01FA03F01042F7D130782A28FC
:1057100011D06FF02F033078A0F13002092A16D88B
:10572000059A44F0020402EB820203EB42021044A9
:10573000761C0590EFE759F8042B0592002A03DA4E
:10574000504244F40054059044F00204761C307832
:105750002E2816D116F8010F44F004042A280DD083
:105760006FF02F023078A0F13003092B09D807EB36
:10577000870302EB4303C718761CF3E759F8047B51
:10578000761C30786C280FD006DC4C2817D068289F
:105790000DD06A2814D104E0742810D07A280FD1D3
:1057A0000DE044F400140AE044F4801401E044F4F1
:1057B00040147278824202D104F58014761C761C63
:1057C000307866280BD013DC582877D009DC002805
:1057D00075D04528F6D04628F4D047281AD19DE147
:1057E00018E0632835D0642879D0652812D195E176
:1057F000702873D008DC6728F1D069286FD06E2834
:105800000DD06F2806D1B5E073282CD0752875D03F
:10581000782874D05A46179990476D1C75E1C4F3E7
:105820000250022809D003280DD0D9F8001004280E
:105830000DD00D6009F1040967E1D9F80010EA17ED
:10584000C1E90052F6E7D9F800100D80F2E70D70BB
:10585000F0E719F8041B8DF8001000208DF8010006
:10586000EA46012003E059F804AB4FF0FF3061072E
:105870004FF0000102D40DE008F101018846B94261
:105880000FDA8045F8DB1AF808100029F4D108E097
:1058900008F1010188468142FADB1AF80810002954
:1058A000F6D105985B46A0EB080721463846179AC3
:1058B00000F094FA284400EB080507E04DE029E1E8
:1058C0000DE01AF8010B5A4617999047B8F10108F4
:1058D000F7D25B4621463846179A13E142E00A2286
:1058E0000092C4F302524FF0000A022A08D059F87D
:1058F00004CB032A4FEAEC710AD00DE029E02AE03C
:1059000009F1070121F00702F2E802C1914609E01E
:105910000FFA8CFC4FEAEC71042A03D14FFA8CFC8D
:105920004FEAEC71002907DA0A460021DCF1000C8D
:1059300061EB02012D2202E0220504D52B228DF815
:105940000420012203E0E20701D02022F7E790467D
:1059500059E00A2102E010220DE010214FF0000A68
:1059600000910BE010224FF0000A44F004040827D5
:10597000009203E008224FF0000A0092C4F30252A2
:10598000022A05D059F804CB0021032A08D009E0E7
:1059900009F1070121F00702F2E802C1914605E092
:1059A0001FFA8CFC042A01D10CF0FF0C4FF0000808
:1059B000220728D5702806D0009B83F0100353EAF5
:1059C0000A0305D00EE040228DF80420012208E0F1
:1059D0005CEA010206D030228DF804208DF8050023
:1059E00002229046009B83F0080353EA0A030AD17F
:1059F0005CEA010201D1620705D530228DF804204E
:105A00004FF001087F1E582804D034A003900EA840
:105A100002900DE036A0F9E753466046009AFAF787
:105A2000E3FB84460398825C0298401E0290027059
:105A30005CEA0100F0D1029806A9081A00F1200AD8
:105A4000600702D524F4803400E00127574502DDC9
:105A5000A7EB0A0000E0002000EB0A010090059887
:105A60004144401A0590E00306D45B462146179A4C
:105A7000059800F0B3F90544002706E001A85A464E
:105A8000C05D179990476D1C7F1C4745F6DBE0030E
:105A90000CD55B462146179A059800F09FF90544FE
:105AA00004E030205A46179990476D1C0099481E13
:105AB00000900029F5DC08E0029802995A46007827
:105AC000491C0291179990476D1CBAF10001AAF187
:105AD000010AF1DC65E100000928010030313233B0
