:020000040800F2
:10000000680D0020C50100087F2B0008BD280008EE
:100010007D2B0008B70700088932000800000000A7
:10002000000000000000000000000000832B00081A
:10003000EB09000800000000812B0008852B000858
:10004000DF010008DF010008DF010008DF01000810
:10005000DF010008DF010008DF010008DF01000800
:10006000DF010008DF010008DF010008DF010008F0
:10007000DF010008DF010008DF010008DF010008E0
:100080000509000811090008DF010008DF01000868
:10009000B9070008C5070008DF010008DF010008F4
:1000A000DF010008992B0008DF010008DF010008CC
:1000B000DF010008DF010008DF010008DF010008A0
:1000C000DF010008DF010008DF010008DF01000890
:1000D000DF010008DF01000815320008DF01000819
:1000E000DF010008DF010008DF010008DF01000870
:1000F000DF010008DF010008DF010008DF01000860
:10010000DF010008DF010008DF010008DF0100084F
:10011000DF010008DF010008DF010008DF0100083F
:10012000DF010008DF010008DF010008DF0100082F
:10013000DF010008DF010008DF010008DF0100081F
:10014000D1070008DD070008DF010008DF01000813
:10015000DF010008DF010008DF010008DF010008FF
:10016000DF010008DF010008DF010008DF010008EF
:10017000DF010008DF010008DF01000800000000C7
:10018000DF010008DF010008DF010008DF010008CF
:10019000DF010008DF010008DF010008DF010008BF
:1001A0000000000000000000DF010008DFF810D0B0
:1001B00000F080FA00F06EF800480047B94A0008E5
:1001C000680D00200648804706480047FEE7FEE726
:1001D000FEE7FEE7FEE7FEE7FEE7FEE7FEE7FEE7F7
:1001E000892B0008AD0100082DE9F05F05460020CD
:1001F00092469B4688460646814640241BE0284698
:1002000041464746224600F08DF853465A46C01AEA
:10021000914110D311461846224600F074F82D1A69
:1002200067EB01084F4622460120002100F06BF8E1
:1002300017EB00094E41201EA4F10104DFDC484603
:1002400031462A464346BDE8F09F40EA01039B073A
:1002500003D009E008C9121F08C0042AFAD203E03B
:1002600011F8013B00F8013B521EF9D27047D2B29F
:1002700001E000F8012B491EFBD270470022F6E78F
:1002800010B513460A4604461946FFF7F0FF20460C
:1002900010BD000070B5054C054D03E020682044FA
:1002A0008047241DAC42F9D170BD00009C4B000872
:1002B000A04B000800F0004230F000400AD0C10D11
:1002C00001F56071C0F3160042EA0151C20840070F
:1002D0001143704700200146704730B50B46014678
:1002E00000202022012409E021FA02F59D4205D3D5
:1002F00003FA02F5491B04FA02F52844151EA2F17F
:100300000102F1DC30BD202A04DB203A00FA02F1C0
:10031000002070479140C2F1200320FA03F31943F3
:1003200090407047202A04DB203A21FA02F0002195
:10033000704721FA02F3D040C2F1200291400843F5
:10034000194670472DE9FE4F804681EA0300C00F31
:100350000C46009021F0004123F00045B8EB02006C
:10036000A94105D24046214690461C460B4602460E
:1003700023F00040104347D0270DC7F30A00C3F312
:100380000A510290401A019040286BDAC3F313001F
:1003900040F4801B0098924620B10023D2EB030A60
:1003A00063EB0B0B01985946C0F140025046FFF732
:1003B000AAFF06460D4650465946019A00F08CF9B0
:1003C00010EB08006141002487EA115284EAE773C8
:1003D0001A4340D0009A62B3019A012A4FEA0752A9
:1003E00015DC001B61EB02014FF0004202EA0752EC
:1003F000CDE90042001C41F5801132462B4600F049
:100400008CF903B0BDE8F08F40462146F9E7001BA8
:1004100061EB0201001C41F5801300185B412018BC
:10042000A2F5001747EB030140EAD570B6196D41FC
:1004300011E06D084FEA360645EAC0754FEA0752EB
:10044000001B61EB0201001C41F5801149084FEAD5
:1004500030000019514132462B4603B0BDE8F04F41
:1004600000F04CB90098012240000023D0EB0202BA
:1004700063EBE073009821464FEAE074B8EB0000AC
:1004800061EB0401E9E783F000435BE781F00041A1
:1004900058E72DE9FE4F81EA030404F0004421F0FF
:1004A000004100944FF0000B23F0004350EA010498
:1004B0005ED052EA03045BD0C3F30A54C1F30A5579
:1004C0002C44A4F2F3340194A0FB0254C1F31301B1
:1004D00041F48011C3F3130343F4801301FB02447E
:1004E00000FB034E840A970A44EA815447EA835783
:1004F000A4FB076802958D0A05FB07854FEA932C3C
:1005000004FB0C542705029D4FEA065847EA1637AC
:10051000B5EB08056EEB070C870E920E47EA8117C4
:1005200042EA8312A7FB0201B6EB0B0164EB000465
:100530002B0D43EA0C335E1844EB1C50DA4651464F
:10054000E7FB0201C5F313044FEA0B3343EA1453EC
:100550004FEA0432019C43EA0603A4F10C0402941E
:10056000009CCDE900B400F0D8F803B0BDE8F08FEE
:1005700000200146F9E72DE9F04D81EA030404F07B
:10058000004B21F0004514464FF0000A23F00041D3
:1005900050EA050220D054EA01021DD0C5F30A57E3
:1005A0000246C5F31303C1F31300C1F30A5640F426
:1005B000801543F48013A7EB0608101BD64608F2FB
:1005C000FD3873EB050002D308F1010801E0921831
:1005D0005B41B8F1000F03DA00200146BDE8F08D61
:1005E00000204FF48011064684460EE0171B73EB83
:1005F000050705D3121B63EB050306434CEA010C08
:1006000049084FEA300092185B4150EA0107EDD1EA
:1006100052EA030012D082EA040083EA050108438B
:1006200005D0101BAB4106D20122002306E00022B8
:100630004FF0004302E06FF0010253101AEB060086
:100640004CEB085110EB0A0041EB0B01BDE8F04DFB
:1006500000F054B8C1F30A52C1F3130140F2FF3362
:1006600041F480119A4202DA00200146704740F2BC
:1006700033439A42A2F2334202DC5242FFF752BEA7
:10068000FFF741BE30B5041E71F1000404DB4FF0EA
:100690000044404264EB0101141E73F1000405DBC9
:1006A0001C464FF00043524263EB0403994208BFDB
:1006B000904230BD064C074D06E0E06840F0010373
:1006C00094E8070098471034AC42F6D3FFF772FD68
:1006D0007C4B00089C4B0008202A06DBCB17203AF5
:1006E00041FA02F043EAE07306E041FA02F3D04037
:1006F000C2F12002914008431946704710B5141EFC
:1007000073F1000408DA401C41F1000192185B41CA
:100710001A4301D120F0010010BD2DE9F04D9246A1
:100720009B4611B1B1FA81F202E0B0FA80F22032B8
:100730009046FFF7E8FD04460F4640EA0A0041EA0A
:100740000B0153465A46084313D0114653EA0100A1
:1007500019D0C8F140025046FFF7E4FD05460E46A9
:10076000504659464246FFF7CEFD084305D00120CA
:1007700004E020463946BDE8F08D0020054346EAF6
:10078000E0762C4337430A986305E40AA0EB08009F
:100790000022FD0A44EA47540A3002D500200146EF
:1007A000E9E7010510196941DDE9084500196941CA
:1007B000BDE8F04DA2E7FEE7014800F0AFBA000047
:1007C0006C000020014800F0A9BA00006C00002075
:1007D000014800F0A3BA000094000020014800F096
:1007E0009DBA00009400002010B58AB00591002148
:1007F00006910124079404925A05120C009201916B
:100800004FF6E072029203910E2109910894694615
:1008100000F072F90AB010BD00F0EAB810B588B067
:100820001446002806D02CB1A279082A02D821B19A
:10083000012902D0002008B010BDE31D01AA00F07C
:10084000E4F908B10020F6E70598A071039820713B
:1008500004986071039820B10398042804D0002004
:10086000E9E70198206001E0029820600120E2E7BA
:10087000F0B587B005460C461746002D07D034B1B9
:10088000A079082803D82068B0F5006F02D30020B3
:1008900007B0F0BD2179002211B1042903D005E091
:1008A0000190029202E00192206802902079039068
:1008B00060790490A07905908DF8182000F0C6FFAB
:1008C000064628688168C943490107D58168C9433C
:1008D000090103D58068C043C00008D46B46E21DFF
:1008E00001A9284600F096F840B10020D0E700F0BA
:1008F000ADFF801BB842E4D90020C9E70120C7E75B
:1009000000F07DBC014800F007BD00004C01002054
:10091000014800F001BD0000AC0100200168CAB22E
:10092000103A1823B2FBF3F2064B9B5CC3656FF3DE
:100930000901032A02D9091D816500E08165806DE6
:10094000704700005C4B000810B5014600208A6A21
:100950008B694FF0C074002B0ED0B3F5005F1AD036
:1009600062B3012A2AD0022A28D0032A03D1C96AF5
:10097000C90100D5012010BD1AB1012A06D0022AF2
:10098000F9D1C96AC901F6D5012010BDC96AA142D1
:10099000FBD1012010BD52B1012A0AD0022A06D093
:1009A000032AF7D1C96AA142F4D1012010BD012068
:1009B00010BDC96AC901FBD5012010BD012010BDC1
:1009C00030B50468256825F48025256004686360D7
:1009D0008368402B04D0036899600068C26030BD12
:1009E00003689A600068C16030BD704772B6FEE768
:1009F00090F82020012A07D0022A05D0416A41F44C
:100A00008021416201207047006842690A434261C7
:100A100000207047F0B590F820500468A468012DBC
:100A200007D0022D05D0416A41F4802141620120A6
:100A3000F0BD04F0806504F00066354301D1E500A7
:100A400053D5C4F301640125A5401D608B684FF4A4
:100A5000C0759BB1CE6805EB041733434E6843EA7B
:100A6000C6030668F3514FF4C273076803EB04131F
:100A70000E69FE50097D012909D00DE00E88CB6872
:100A800005EB041743EA46530668F351EBE70168A8
:100A9000CE5846F48076CE501179D379567941EA12
:100AA000036193791B0443EA062319434FF4C67686
:100AB000036806EB041699511178D37841EA036173
:100AC000937852781B0443EA022211434FF4C47313
:100AD000026803EB0413D150006805EB041142587F
:100AE00042F0010242500020F0BD416A41F4001181
:100AF00041620120F0BD000010B590F82020012ACD
:100B000007D0022A05D0416A41F4802141620120C8
:100B100010BD3C4800F50070026842F0010202601E
:100B2000026822F47C52026002684B6A42EA0322A5
:100B300002600A7D02F01F0301229A40C3699343B9
:100B4000C361A0F50070CB69B3B9D0F80C32934300
:100B5000C0F80C328C894B6864F31F434C6900EB7E
:100B6000C404C4F840320C890B6864F31F434C6919
:100B700000EBC404C4F84432CB69012B16D1D0F881
:100B80000C321343C0F80C320C884B6864F31F43DB
:100B90004C6900EBC404C4F840320C89CB6864F3A0
:100BA0001F434C6900EBC404C4F844328B697BB129
:100BB000D0F804321343C0F804320B6973B1D0F893
:100BC00014321343C0F81432096A01290CD010E022
:100BD000D0F804329343C0F80432EEE7D0F8143270
:100BE0009343C0F81432EFE7D0F81C121143C0F859
:100BF0001C12D0F8001221F00101C0F800120020F0
:100C000010BD000000640040704770B590F82040AF
:100C1000012C07D0022C05D0416A41F480214162A9
:100C2000012070BD21B104682469A4072AD003E023
:100C30000468E468A4071FD04FF4D874056804EB77
:100C400001142D5905F0040595600DB305682D5963
:100C5000ED08556005682C5904F00204D4604FF487
:100C6000DA74056804EB01142E5906F00F06082EFD
:100C700013D30825156114E0416A41F40011416263
:100C8000012070BD416A41F400114162012070BD34
:100C900005682D596D0D1560DCE72D5905F00F0520
:100CA000156105682D59C5F30725956105682C590F
:100CB000240C54614FF4DC72046802EB0112A45856
:100CC0001C700468A458240A5C700468A458240C9E
:100CD0009C700468A258120EDA704FF4DE72046839
:100CE00002EB0112A4581C710468A458240A5C7118
:100CF0000468A458240C9C710468A258120EDA717E
:100D000031B10068016941F020010161002070BD2E
:100D10000068C16841F02001C160F7E72DE9F05F8C
:100D20000546002428684669D0F804908768D0F802
:100D30000CA0D0F810B0D0F81880F10748D0F9070F
:100D400014D001218160B80703D5284600F084FA49
:100D50000CE0780702D54FF4006407E0380702D5AD
:100D60004FF4805402E0284600F075FAF80516D5D5
:100D700029684FF480708860B80503D5284600F0D4
:100D80006DFA0CE0780502D544F4005407E038050C
:100D900002D544F4804402E0284600F05EFAF803ED
:100DA00016D529684FF480308860B80303D52846EB
:100DB00000F056FA0CE0780302D544F4004407E052
:100DC000380302D544F4803402E0284600F047FAA4
:100DD000300707D55FEACA6004D544F40074296877
:100DE0001020C86070074FF0080707D55FEA0A7047
:100DF00004D52868C760284600F0C8F9B00706D5B2
:100E00002868C068800702D0284600F0C1F9700643
:100E100007D55FEACB6004D544F4806429681020CC
:100E20000861B00607D55FEA0B7004D52868076132
:100E3000284600F0C7F9F00606D528680069800743
:100E400002D0284600F0C0F9B00308D55FEAC960B7
:100E500005D5296810204860284600F0CFF9F00336
:100E600007D55FEA097004D528684760284600F076
:100E7000F8F9300446D55FEA497040D5F00504D54D
:100E80005FEAC87001D044F00104B00504D55FEA00
:100E9000887001D544F00204700504D55FEA4870FB
:100EA00001D544F00404300529D518F0700F26D080
:100EB00008F07000402815D006DC102809D0202842
:100EC0000AD0302816D10AE050280ED0602811D15F
:100ED0000EE044F008040DE044F010040AE044F091
:100EE000200407E044F0400404E044F0800401E002
:100EF00044F480742868816921F070018161296857
:100F000004204860002C05D0686A204368622846A7
:100F1000FFF77AFEBDE8F09F70B50446002C03D0C1
:100F200094F8200010B104E0012070BD204600F0CC
:100F30009DF82068016841F00101016000F086FC25
:100F4000054605260CE000F081FC401B0A2807D965
:100F5000606A40F40030606284F82060012070BD57
:100F600020684068C007EED02068016821F00201C7
:100F7000016000F06BFC05460CE000F067FC401BD4
:100F80000A2807D9606A40F40030606284F8206063
:100F9000012070BD206840688007EED4207E0128C3
:100FA0003FD02068016821F080010160607E012847
:100FB0003DD02068016821F040010160A07E012839
:100FC0003BD02068016821F020010160E07E01280B
:100FD00039D02068016841F010010160207F0128AC
:100FE00037D02068016821F008010160607F012886
:100FF00035D02068016821F004010160D4E90201C4
:101000000843D4E90412114308436168491E0843A8
:101010002168C86100206062012084F8200000205F
:1010200070BD2068016841F080010160BEE7206862
:10103000016841F040010160C0E72068016841F0AB
:1010400020010160C2E72068016821F01001016001
:10105000C4E72068016841F008010160C6E7206824
:10106000016841F004010160C8E700002DE9F0418A
:1010700086B00446142101A8FFF700F93E4B3F4A11
:10108000DFF8F080186821683C4C03260227401CDA
:10109000103200254FF0090C41452FD1186001286E
:1010A00007D1106840F000701060106800F0007008
:1010B0000090206840F008002060206800F00800E0
:1010C00000900196029703950496CDF814C001A9EB
:1010D0002B4800F0BDFA00221146142000F028FC35
:1010E000142000F017FC01220021152000F020FC44
:1010F000152000F00FFC06B0BDE8F081DFF8848019
:101100004145F8D1116841F080611160116801F02A
:10111000806100911860012807D1106840F00070CC
:101120001060106800F000700090206840F002002D
:101130002060206800F0020000904FF440500190C1
:10114000029703950496CDF814C001A90E4800F04B
:101150007FFA00221146402000F0EAFB402000F018
:10116000D9FB01220021412000F0E2FB412000F0E8
:10117000D1FBC0E70064004000000020303802408E
:10118000000C02400068004000040240704700006C
:1011900070B5094A01680125084C914205D1084AF9
:1011A0000021FFF73BFB257070BD054A002110327E
:1011B000FFF734FB657070BD00640040190000202B
:1011C0000C0400207047000070B5094A0168012531
:1011D000084C914205D1084A0121FFF71FFB2570F9
:1011E00070BD054A01211032FFF718FB657070BD14
:1011F00000640040190000200C040020704770B506
:10120000044694F82000012805D0606A40F40020CC
:101210006062012070BD022084F82000206801680F
:1012200021F00101016000F011FB05460DE000F026
:101230000DFB401B0A2808D9606A40F40030606248
:10124000052084F82000012070BD20684068C00798
:10125000EDD1606270BD704770477047704770474E
:10126000704770472DE9F0410446A76D00F0EEFA93
:10127000054694F835000026022806D080206065D7
:1012800084F834600120BDE8F0812068016821F015
:10129000160101602068416921F080014161206CE4
:1012A00008B9A06C20B12068016821F00801016034
:1012B0002068016821F0010101600BE000F0C6FA2E
:1012C000401B052806D9202034342062032060709A
:1012D0002670D8E720680068C007EFD134343F207B
:1012E00094F828108840B8600120607026700020B3
:1012F000C9E790F83510022903D08021416501200B
:101300007047052180F835100068016821F001015F
:1013100001600020704700002DE9F84304464FF0BB
:101320000009CDF800906F484FF416510068B0FBEB
:10133000F1F7A56D2E6894F85C00082202FA00F11E
:10134000314210D02068016849070CD5016821F0AE
:101350000401016094F85C0002FA00F1A960606D7C
:1013600040F00100606594F85C104FF0010808FA45
:1013700001F0304208D021684969090604D5A86007
:10138000606D40F00200606594F85C1004208840B5
:10139000304208D021680968890704D5A860606DCB
:1013A00040F00400606594F85C10102088403042E2
:1013B00020D02168096809071CD5A8602068016849
:1013C00049030CD50068000304D4216C91B1204678
:1013D00088470FE0A16C69B1204688470AE00168A0
:1013E000C90503D4016821F008010160216C09B12D
:1013F0002046884794F85C102020884030424CD02A
:1014000021680968C90648D5A86094F83500052800
:101410000BD020680168490330D50068000328D448
:10142000616C51B32046884737E02068016821F09D
:10143000160101602068416921F080014161206C42
:1014400008B9A06C20B12068016821F00801016092
:1014500094F85C103F208840A86084F8358084F8B8
:101460003490216D00293BD001B02046BDE8F04307
:101470000847E16B09B1204688470EE00168C905BD
:1014800007D4016821F01001016084F8358084F8E8
:101490003490E16B09B120468847606D00281FD069
:1014A000606DC00714D0052084F8350020680168FD
:1014B00021F0010101600098401C0090B84203D85F
:1014C00020680068C007F6D184F8358084F834902D
:1014D000E16C002904D001B02046BDE8F043084784
:1014E000BDE8F883140000202DE9F041044600F027
:1014F000ADF905465CB1022084F83500002684F879
:1015000034602068016821F0010101600DE00120D4
:10151000BDE8F08100F09AF9401B052805D920208C
:101520006065032084F83500F2E720680068C00792
:10153000F0D121680A6820480240D4E90103184329
:10154000D4E903352B43184363691843A36918434F
:10155000E3691843236A18431043626A042A03D1DB
:10156000D4E90B231A43104308602068406920F037
:101570000700656A29460543012704290DD1A06AA1
:101580000543E06A48B12046FFF7DEF928B1402064
:10159000606584F835700120BAE72068456120460F
:1015A000FFF7BCF994F85C203F21914081606665AB
:1015B00084F835700020ABE73F8010F02DE9F04152
:1015C00004460025A66D94F8340001280DD00120B2
:1015D00084F8340094F835700020012F07D084F887
:1015E000340002252846BDE8F0810220FBE70227EF
:1015F00084F8357060652046FFF7E2F994F85C10D6
:101600003F208840B0602068016841F01601016009
:10161000206C20B12068016841F008010160206859
:10162000016841F001010160DCE7000070B504468B
:1016300000F00CF90546601C02D004480078044410
:1016400000F004F9401BA042FAD370BD080000204E
:101650002DE9F84F0022DFF8B0914FF00108032781
:101660004FF00F0C09F1040AA9F1040B08FA02F576
:101670000B682B40AB426ED10C7904F00304012CB3
:1016800001D0022C15D18668540007FA04FE26EA20
:101690000E06D1F80CE00EFA04FE4EEA060EC0F873
:1016A00008E04468AC430D79C5F300159540254327
:1016B00045600C79E443A40708D0C568540007FAD4
:1016C00004F6B5438E68A6402E43C6600C7904F03C
:1016D0000304022C11D1D40800EB8406356A5407A8
:1016E000E40E0CFA04FE25EA0E05D1F810E00EFA1D
:1016F00004FE4EEA050EC6F820E00568540007FA1D
:1017000004F6B5430E7906F00306A6402E430660A4
:101710004C6814F4403F71D03C4C256845F480453A
:101720002560246804F480440094394C22F00305B9
:101730002E19D6F8085894074FEA147E0CFA0EF4C6
:10174000A543344CA04201D100242EE0324CA042EB
:1017500002D1012429E051E0304CA04201D1022401
:1017600023E02F4CA04201D103241EE02D4CA042C7
:1017700001D1042419E02C4CA04201D1052414E02D
:101780002A4CA04201D106240FE0294CA04201D1ED
:1017900007240AE0274CA04201D1082405E0264C8A
:1017A000A04201D1092400E00A2404FA0EF42C43DB
:1017B000C6F80848D9F800409C434D68ED0200D5B2
:1017C0001C43C9F80040DAF800409C434D68AD0264
:1017D00000D51C43CAF80040DBF800409C434D682C
:1017E000AD0300D51C43CBF80040074D083D2C68E5
:1017F0009C434E68F60300D51C432C60521C102AF3
:10180000FFF434AFBDE8F88F083C01404438024093
:101810000030014000000240000402400008024085
:10182000000C024000100240001402400018024068
:10183000001C02400020024000240240002A01D087
:101840008161704709048161704700000148806828
:1018500070470000080000200248816802781144A7
:10186000816070470800002010B50B48016841F402
:1018700000710160016841F480610160016841F418
:1018800080710160032000F073F8072000F006F873
:1018900000F026F8002010BD003C024070B5044660
:1018A0000D4D4FF47A712878B1FBF0F00B490968BF
:1018B000B1FBF0F000F08AFB08B1012070BD102CE4
:1018C00007D200222146501E00F032F86C60002042
:1018D00070BD012070BD0000080000201400002031
:1018E00082B00B48016841F480410160006800F457
:1018F000804001900648001F016841F0805101605E
:10190000006800F080500190042002B000F030B870
:1019100044380240002809DB00F01F0201219140F9
:101920004009800000F1E020C0F80011704700007D
:10193000F0B40D460D4B1B68C3F30223C3F107043B
:10194000042C00D90424191D072901D2002300E02A
:10195000DB1E012606FA04F1491E294099409E40EB
:10196000761E16403143F0BC02F096BB0CED00E051
:1019700000F00701054A10684FF6FF03184040EADF
:101980000120034908431060704700000CED00E09F
:101990000000FA052DE9F8431848016841F080512C
:1019A0000160006800F080500090DFF8548001274B
:1019B000C8F84070FFF74AFF05464FF47A76114C9D
:1019C00007E0FFF743FF401BB04202D90320BDE808
:1019D000F8836068C003F4D5C8F84470FFF736FF99
:1019E000054606E0FFF732FF401BB04201D9032055
:1019F000EDE760688003F5D50020E8E74038024055
:101A000000000E42007000402DE9F04704460D46EC
:101A1000002C13D0DFF82891D9F80000EFB200F0C5
:101A20000F00A8420CD289F80070D9F8000000F02D
:101A30000F00A84204D00120BDE8F0870120FBE799
:101A40002068404E810712D5400703D5306840F426
:101A5000E05030602078000703D5306840F46040E3
:101A600030603068A16820F0F000084330602078D2
:101A7000C00731D0334960680839012808D00228EE
:101A80000BD0032809D0096889070BD40120D3E7BC
:101A90000968890306D40120CEE70968890101D4C9
:101AA0000120C9E7316821F0030101433160FFF7EC
:101AB000CDFE804641F2883A07E0FFF7C7FEA0EB73
:101AC0000800504501D90320B6E73068616800F08E
:101AD0000C00B0EB810FF0D1D9F8000000F00F003E
:101AE000A84209D989F80070D9F8000000F00F0069
:101AF000A84201D001209FE72078400705D5306833
:101B0000E16820F4E050084330602078000706D5F3
:101B10003068216920F4604040EAC100306000F084
:101B20003FF83168084AC1F30311515CC8400749C6
:101B3000086007480068FFF7B1FE00207CE700005E
:101B4000003C024008380240644B000814000020AA
:101B50000C000020014800687047000014000020BD
:101B600000B5FFF7F7FF04490968044AC1F3822171
:101B7000515CC84000BD000008380240744B0008AA
:101B800000B5FFF7E7FF04490968044AC1F3423191
:101B9000515CC84000BD000008380240744B00088A
:101BA00010B51748006810F00C01164816D0164BF7
:101BB000042912D0082911D1114C241F216801F0E9
:101BC0003F02216849020AD52068C0F38810A0FBB3
:101BD00003010023FEF708FB09E0184610BD216849
:101BE0000023C1F38811A1FB0001FEF7FDFA216873
:101BF000C1F30141491C4900B0FBF1F010BD0000E8
:101C0000083802400024F400001BB7002DE9F84F0B
:101C10000446002C13D02078DFF8A083C007A8F179
:101C2000040556D008F104000168C1F381010129BF
:101C30000CD00068C0F38100022803D00DE0012021
:101C4000BDE8F88FD8F80000400206D52868800368
:101C50003FD5606870BB0120F2E76068B0F5803F57
:101C600010D0B0F5A02F12D0286820F48030286062
:101C7000286820F4802028606068E0B1FFF7E6FD66
:101C8000064614E0286840F480302860F4E72868AD
:101C900040F480202860286840F480302860EBE71A
:101CA000FFF7D4FD801B642801D90320C8E728680A
:101CB0008003F5D50DE0FFF7C9FD064606E0FFF706
:101CC000C5FD801B642801D90320B9E7286880037B
:101CD000F5D42078BA4F80074FF0000948D5B748AF
:101CE000001D016811F00C0F08D00068C0F38100DE
:101CF000022813D1D8F8000040020FD428688007CA
:101D000004D5E068012801D0012099E728682169FD
:101D100020F0F80040EAC100286029E0E068B8B18E
:101D200001203860FFF792FD064606E0FFF78EFDC2
:101D3000801B022801D9032082E728688007F5D597
:101D40002868216920F0F80040EAC10028600FE00F
:101D5000C7F80090FFF77AFD064606E0FFF776FD2C
:101D6000801B022801D903206AE728688007F5D480
:101D70002078000729D5DFF844A2924861690AF16A
:101D8000700A89B101210160FFF760FD064606E097
:101D9000FFF75CFD801B022801D9032050E7DAF829
:101DA00000008007F4D510E0C0F80090FFF74EFD6A
:101DB000064606E0FFF74AFD801B022801D90320F2
:101DC0003EE7DAF800008007F4D42078400778D5A1
:101DD0004FF0000A79483C300068C0000BD47748C7
:101DE0003C30016841F080510160006800F0805093
:101DF00000904FF0010ADFF8D0B1DBF80000C00519
:101E000014D4DBF8000040F48070CBF80000FFF73A
:101E10001DFD064606E0FFF719FD801B022801D9CB
:101E200003200DE7DBF80000C005F4D5634EA06881
:101E30006C3601280FD0052812D0306820F0010040
:101E40003060306820F004003060A068F8B1FFF71F
:101E5000FDFC834617E0306840F001003060F4E795
:101E6000306840F004003060306840F001003060BD
:101E7000EBE7FFF7EBFCA0EB0B0141F2883081426E
:101E800001D90320DCE630688007F2D510E0FFF7C7
:101E9000DDFC834609E0FFF7D9FCA0EB0B0141F222
:101EA0008830814201D90320CAE630688007F2D425
:101EB000BAF1010F05D141483C30016821F0805151
:101EC0000160A069C0B33D49091D09684FF0FF36A4
:101ED000C1F38101022946D0022805D0C7F86090DD
:101EE000FFF7B4FC04463AE0C7F86090FFF7AEFC99
:101EF000814607E0FFF7AAFCA0EB0900022801D900
:101F000003209DE628688001F4D4D4E90701084342
:101F1000616AA26A890106EB520241EA0241084362
:101F200094F82C1040EA0160C8F8000001203866DF
:101F3000FFF78CFC044607E03DE0FFF787FC001B41
:101F4000022801D903207BE628688001F5D532E01C
:101F5000FFF77CFC001B022801D9032070E62868EB
:101F60008001F5D427E0012823D0D8F80000E269E9
:101F700000F4800191421AD1226A00F03F0191429F
:101F800015D147F6C071626A0140B1EB821F0ED1D4
:101F9000A26A00F4403106EB5202B1EB024F06D1C7
:101FA00094F82C1000F07060B0EB016F03D00120AA
:101FB00046E6012044E6002042E6000004380240E4
:101FC00000004742800E47420070004010B5401E9E
:101FD000B0F1807F01D3012010BD4FF0E02460619B
:101FE0000F21601702F058F80020A061072020613F
:101FF000002010BD7047704770B590F83C20012A52
:1020000031D0012680F83C60022280F83D20026831
:102010005468936824F070050C682C435460134C8A
:102020000268A24214D0B2F1804F11D0104CA242EB
:102030000ED0104CA2420BD00F4CA24208D00F4C35
:10204000A24205D00E4CA24202D00E4CA24204D1B4
:1020500023F080034968194391603C3046700021A9
:102060000170002070BD022070BD00000000014022
:102070000004004000080040000C00400004014043
:10208000004001400018004010B50446002C03D069
:1020900094F83D0010B107E0012010BD002084F845
:1020A0003C00204600F016F8022084F83D00211D77
:1020B000206800F077FD01203D3460726070A070F0
:1020C000E07020716071A071E071207220700020BA
:1020D00010BD000008B500680B49884212D10B48BA
:1020E000016841F001010160006800F0010000900A
:1020F000002201211920FFF71BFCBDE80840192030
:10210000FFF708BC08BD0000000001404438024051
:1021100090F83D10012901D001207047022180F87C
:102120003D100168CA6842F00102CA6000681449A3
:10213000884214D0B0F1804F11D0124988420ED09D
:10214000114988420BD01149884208D01049884271
:1021500005D01049884202D00F49884209D18168D0
:1021600001F00701062908D0016841F00101016072
:1021700003E0016841F001010160002070470000A8
:10218000000001400004004000080040000C004036
:1021900000040140004001400018004070B50446B2
:1021A000002594F83C00012817D0012684F83C60F3
:1021B000022084F83D002068826822F0770222F431
:1021C0007F4282600868502838D00DDC202853D028
:1021D00005DC90B3102811D14EE0022070BD3028EC
:1021E0004AD040280AD13DE0602831D070280CD078
:1021F000B0F5805F03D0B0F5005F12D001253C340C
:10220000667000202070284670BDCB68D1E901219E
:10221000206800F031FD2068816841F0770181601D
:10222000EDE7CB68D1E90121206800F025FD2068A9
:10223000816841F480418160E1E71DE0CA68496836
:10224000206800F02DFD5021206800F01FFDD6E72A
:10225000CA684968206800F034FD6021206800F0F9
:1022600015FDCCE7CA684968206800F019FD4021D7
:10227000206800F00BFDC2E722680146104600F01E
:1022800005FDBCE770472DE9F04104462068C568AC
:1022900006694FF00007B10714D5A90712D5F91E3A
:1022A00001610120207720688069800703D02046E3
:1022B000FFF7E8FF05E0204600F081F8204600F037
:1022C0007FF82777700717D5680715D521686FF055
:1022D00004000861022020772068806910F4407FA4
:1022E00003D02046FFF7CEFF05E0204600F067F858
:1022F000204600F065F82777300716D5280714D553
:1023000021686FF008000861042020772068C06908
:10231000800703D02046FFF7B5FF05E0204600F018
:102320004EF8204600F04CF82777F00617D5E8065F
:1023300015D521686FF0100008610820207720680B
:10234000C06910F4407F03D02046FFF79BFF05E0F3
:10235000204600F034F8204600F032F82777F007E6
:1023600008D0E80706D021686FF001000861204618
:1023700000F028F8300608D5280606D521686FF049
:10238000800008612046FFF735FE700608D5680614
:1023900006D521686FF040000861204600F01EF865
:1023A000B0060AD5A80608D521686FF0200008619C
:1023B0002046BDE8F041FFF71EBEBDE8F081704742
:1023C0007047000000680349884202D10249012099
:1023D00008707047000001401800002070477047E7
:1023E00010B5044620684069C0F3C01094F841104D
:1023F000212911D180B12068143050E8001F21F04C
:10240000800140E80012002AF5D1A06B08B1FEF768
:1024100029FF204600F019FD20684069C0F38010B4
:1024200094F84210222911D180B12068143050E86C
:10243000001F21F0400140E80012002AF5D1E06BB6
:1024400008B1FEF70FFF204600F0CBFC002010BDC6
:1024500070470000F8B5044622681068D1685369D7
:1024600000F00F06002E08D1850606D58D0604D58E
:102470002046BDE8F84000F0F6BC0025002E66D0EE
:1024800003F0010601F49077374360D0C20705D00E
:10249000CA0503D5626C42F001026264420705D5A9
:1024A000DA0703D0626C42F002026264820705D54B
:1024B000DA0703D0626C42F004026264020707D5B7
:1024C00001F02002324303D0626C42F008026264E1
:1024D000626C002A31D0800604D5880602D52046D9
:1024E00000F0C1FC20684069C0F38010616C0907EE
:1024F00000D438B3204600F074FC206840694006E0
:102500001CD52068143050E8001F21F0400140E83D
:102510000012002AF5D1E06B60B15F490165E06B04
:10252000FEF7E7FE002808D0E06B016D01B0BDE8C2
:10253000F04008472046FFF78BFFF8BD2046FFF725
:1025400087FFF8BD2046FFF783FF6564F8BD236B66
:10255000012B7DD1C3067BD5CB0679D51068506899
:10256000009050694FF0200340064FF002064FD50F
:10257000E26B1068406880B2DF00E8B3A18D814251
:102580003BD9E085D069B8422DD020680C3050E8A6
:10259000001F21F4807140E80012002AF5D1206864
:1025A000143050E8001F21F0010140E80012002A19
:1025B000F5D12068143050E8001F21F0400140E8B8
:1025C0000012002AF5D184F84230256320680C30CF
:1025D00050E8001F21F0100140E80012002AF5D158
:1025E000E06BFEF73FFE6663A08DE18D401A81B27D
:1025F0002046FFF7F4FEF8BDFFE7A18D8142FAD136
:10260000D069B842F7D166632046FFF7E8FEF2E7EB
:10261000A08DE18D401A81B2E08D0028EBD0002919
:10262000E9D020680C3050E8002F22F4907240E886
:102630000027002FF5D12068143050E8002F22F039
:10264000010240E80027002FF5D184F8423000E075
:102650000FE0256320680C3050E8002F22F01002B4
:1026600040E80023002BF5D166632046FFF7B7FE54
:10267000C1E7020606D50A0604D52046BDE8F840A3
:1026800000F040BD4006B6D54806B4D52046BDE8AA
:10269000F84000F0CDBB0000E72C000870B5044600
:1026A000002C04D094F84100002510B106E0012070
:1026B00070BD84F84050204600F024F8242084F8AF
:1026C00041002068C16821F40051C160204600F03B
:1026D0003DFC2068016921F4904101612068416955
:1026E00021F02A0141612068C16841F40051C160B4
:1026F0006564202084F8410084F84200656300206E
:1027000070BD00002DE9F04186B00546142101A8F6
:10271000FDF7B4FD3049286888425AD100262F4879
:10272000016841F400310160006800F4003000905D
:102730002A481038016841F008010160006800F083
:102740000800009060200190022002900396032070
:1027500004900720059001A92148FEF779FF224C3B
:10276000204820604FF00068C4F80480A660E6604E
:10277000071527616661A661E661F801206266625D
:102780002046FEF7B1FE08B1FEF730F9EC63A56311
:102790001448154C183060342060C4F80480402080
:1027A000A060E66027616661A661E6618002206242
:1027B00066622046FEF798FE08B1FEF717F9AC6393
:1027C000A563012211462620FFF7B2F82620FFF765
:1027D000A1F806B0BDE8F081004400404038024056
:1027E000000C0240886002404C01002090F842300A
:1027F000202B01D00220704721B11AB100230363BE
:1028000000F02EBC01207047704770472DE9F84357
:1028100004460E4615461F4694F84100202802D073
:102820000220BDE8F8837EB175B1002060642120EC
:1028300084F84100FFF70AF88146A584E584A06882
:10284000B0F5805F02D003E00120EAE7206920B103
:10285000354600264FF0200815E00025FAE74B46E4
:10286000002280212046009700F07BFC18B184F8FC
:1028700041800320D5E7ADB1216815F8010B486010
:10288000E08C401EE084E08C0028E8D14B4600221A
:1028900040212046009700F064FC50B184F841804C
:1028A0000320BEE736F8020B2168C0F30800486039
:1028B000E6E784F841800020B3E77047FEE70000B8
:1028C00010B520481E490160092141600021816046
:1028D000C1604FF48032026112014261017641769B
:1028E00081760122C27601774177FEF715FB08B1A8
:1028F000FEF77CF8002240F2022311461148FDF752
:1029000073FF08B1FEF772F840F2032300220121A1
:102910000C48FDF769FF08B1FEF768F80221094885
:10292000FDF77AFF08B1FEF761F80648FDF7E8FF0A
:10293000002803D0BDE81040FEF758B810BD0000D5
:10294000006400406C00002010B529482749016050
:102950000921416000218160C1604FF48032026131
:1029600012014261017641768176C1760177417725
:10297000FEF7D2FA08B1FEF739F840F2012300223F
:102980000E211B48FDF730FF08B1FEF72FF840F28B
:10299000022300220F211648FDF726FF08B1FEF79B
:1029A00025F840F20323002210211148FDF71CFFF7
:1029B00008B1FEF71BF84FF40173002211210C48F7
:1029C000FDF712FF08B1FEF711F802210848FDF7E4
:1029D00023FF08B1FEF70AF80548FDF791FF00282C
:1029E00003D0BDE81040FEF701B810BD00680040FC
:1029F0009400002008B50D48016841F40011016001
:102A0000006800F400100090002203211020FEF75F
:102A10008FFF1020FEF77EFF012203211120FEF719
:102A200087FFBDE808401120FEF774BF3038024030
:102A300030B587B0142102A8FDF720FC00241D4802
:102A4000016841F001010160016801F0010101919B
:102A5000016841F008010160016801F0080101917D
:102A6000016841F080010160016801F0800101917D
:102A7000016841F040010160016801F040010191ED
:102A8000016841F002010160006800F0020001905D
:102A9000094D012202212846FEF7D0FE02210291B3
:102AA000012203920494059102A92846FEF7D0FD65
:102AB00007B030BD303802400018024010B586B073
:102AC00000240294039404940594009401941648FD
:102AD00014490160B3214160846040F2E731C16074
:102AE0000461446180218161FFF7CEFA08B1FDF7EE
:102AF0007DFF4FF48050029002A90B48FFF74EFB78
:102B000008B1FDF773FF0094019469460648FFF78A
:102B100073FA08B1FDF76AFF034800F0BFF806B08A
:102B200010BD000000000140BC00002010B5114C99
:102B30000F4820604FF4E13060600020A060E0604A
:102B400020610C216161A061E0612046FFF7A6FDD4
:102B500008B1FDF74BFF4FF4807207490548FFF7B6
:102B600045FE2068C16841F01001C16010BD000041
:102B700000440040040100200C030020FEE7FEE7B3
:102B800070477047FEF768BE0248016841F4700163
:102B90000160704788ED00E00148FFF774BB00005A
:102BA000BC0000202DE9F0410268284D284E294F35
:102BB000DFF8A4C0294B4FF08048A84209D0404517
:102BC00007D0B04205D0B84203D0604501D098424A
:102BD00003D122F070044A682243A8421BD040452A
:102BE00019D0B04217D0B84215D0604513D09842E2
:102BF00011D01B4CA0420ED01A4CA0420BD01A4C44
:102C0000A04208D0194CA04205D0194CA04202D0D5
:102C1000184CA04203D122F44074CA6822434C6984
:102C200022F0800222438C68C4620C688462A8424D
:102C300001D0984201D109690163016841F00401A2
:102C40000160012141610260BDE8F08100000140A6
:102C50000004004000080040000C00400004014057
:102C6000004001400044014000480140001800407D
:102C7000001C00400020004010B5846824F47F440C
:102C800042EA03220A432243826010BD826822F096
:102C900070020A4342F0070181607047FFF738BABB
:102CA00010B5036A046A24F001040462846924F004
:102CB000F00444EA021423F00A020A438461026227
:102CC00010BD10B5036A046A24F01004046284691C
:102CD00024F4704444EA023223F0A00343EA0111D1
:102CE0008261016210BD10B5806B0021C185FFF7C4
:102CF000AFFB10BD70B5846B20684069C0F3C01095
:102D000094F841100025212904D118B1E58420460A
:102D100000F09BF820684069C0F3801094F84210DE
:102D2000222904D118B1E585204600F05AF8606CDC
:102D300040F0100060642046FFF78AFB70BD10B5BC
:102D40000146886B096809684FF00003C9052ED455
:102D5000C38501680C3151E8002F22F4807241E8EC
:102D60000024002CF5D10168143151E8002F22F025
:102D7000010241E80024002CF5D10168143151E82A
:102D8000002F22F0400241E80024002CF5D1202140
:102D900080F84210016B012909D101680C3151E81A
:102DA000002F22F0100241E80024002CF5D14363EB
:102DB000016B012902D0FFF727FD10BD818DFFF7C0
:102DC0000EFB10BD10B5806B01214163016B012921
:102DD00002D0FFF71AFD10BD818D4908FFF7FFFAF9
:102DE00010BD01680C3151E8002F22F4907241E8C7
:102DF0000023002BF5D10168143151E8002F22F097
:102E0000010241E80023002BF5D1016B012909D112
:102E100001680C3151E8002F22F0100241E8002334
:102E2000002BF5D1202180F842100021016370476A
:102E300010B50168CA6822F04002CA60202180F8FB
:102E40004110FFF73AFD002010BD01680C3151E838
:102E5000002F22F0C00241E80023002BF5D12021F1
:102E600080F84110704708B590F84210222901D02F
:102E7000022008BD82684FF480539A4201D1016953
:102E800021B1816A9A421DD052B10BE0816A026879
:102E90005268C2F308020A80816A891C816209E0D3
:102EA00002697AB10268526802F07F020A70816A90
:102EB000491C8162C18D491E0904090CC18505D0D8
:102EC000002008BD026852680A70F0E70168CA680D
:102ED00022F02002CA600168CA6822F48072CA60C7
:102EE00001684A6922F001024A61202180F84210FB
:102EF00000214163026B012A03D0FFF785FC00200B
:102F000008BD016301680C3151E8002F22F0100266
:102F100041E80023002BF5D101680A68D20602D5EA
:102F20000A6849680091818DFFF759FAE7E710B503
:102F3000002806D029B122B1FFF768FC18B10020A3
:102F400010BD002010BD012010BD00002DE9F04192
:102F5000044620680169E26821F44051114301618F
:102F6000A1682069E2690143606910430143206858
:102F7000C26849F20C639A430A43C26020684169FF
:102F8000A26921F4407111434161334920688842AC
:102F900002D03249884202D1FEF7F2FD01E0FEF78D
:102FA000DFFDE1690023192764253226B1F5004FC2
:102FB00028D061688B0F8A00A0FB0701FDF714F988
:102FC0000146B0FBF5F07A42504301EB800006EB7E
:102FD0000010B0FBF5F000F0F002B1FBF5F002EBF1
:102FE0000012B1FBF5F07B42584301EB800006EB89
:102FF0000010B0FBF5F0216800F00F00104488606D
:10300000BDE8F08161684A18A0FB07015B41FDF74C
:10301000EBF80146B0FBF5F00201B1FBF5F06FF003
:103020001803584301EB800006EBC000B0FBF5F03D
:1030300000F0F80002EB4002B1FBF5F0584301EB61
:10304000800006EBC000B0FBF5F0216800F007003F
:1030500010448860D4E700000010014000140140D3
:1030600037B582B004461346039AA262A3850020B6
:103070006064222184F84210E56B1F49E963E56B27
:103080001E492964E56B1E49E964E16B0865216806
:10309000E06B091DFEF792FA38B110206064202021
:1030A00084F84200012005B030BD20680168406806
:1030B0000190206948B120680C3050E8001F41F4AD
:1030C000807140E80012002AF5D12068143050E8E1
:1030D000001F41F0010140E80012002AF5D12068EC
:1030E000143050E8001F41F0400140E80012002A6F
:1030F000F5D10020D7E700003F2D0008C52D0008BE
:10310000F52C000890F84110212901D002207047C9
:103110008168B1F5805F01D1016961B1016A4A1C22
:103120000262026809785160C18C491E0904090CC9
:10313000C1840AD013E0016A02680988C1F308015A
:103140005160016A891C0162EEE70168CA6822F0D9
:103150008002CA600068C16841F04001C16000207F
:1031600070472DE9F84304460D4617469846089ED9
:1031700025E0701C23D0FEF769FBA0EB0800B042ED
:103180001BD8D6B12068C168490718D5802D16D044
:10319000402D14D00168C943090710D400252168C7
:1031A0000968406800902046FFF71BFE0820606415
:1031B00084F840500120BDE8F8830320FBE7206835
:1031C000006835EA000004D00020B842D1D00020C9
:1031D000F1E70120F9E700000FB438B5044606AB6B
:1031E00080210B48059A00F041FF00210091002842
:1031F0000CDD802801DA82B200E07F220F2304492F
:103200002046FFF794FE38BC5DF814FB0020FAE777
:103210002C040020F8B5174800680168C943C906A6
:1032200022D400250168406800901248FFF7D8F8C2
:10323000114800684068114EC0F5807084B27480F7
:10324000FF2C00D3FF240E492246A1F58070FCF725
:10325000FCFF0C4805554FF4807209490548FFF7FB
:10326000C5FA3078401C3070BDE8F8400148FFF7DF
:10327000F1B80000040100204C01002004000020EF
:103280000C0300200C020020FEE700002DE9F043B3
:103290002DED028BA9B0DFED611AB0EE612A9FED32
:1032A000608AB0EE481AF0EE480A9FED5E0A17A851
:1032B00000F032FC9FED5C2ADFED5C1AB0EE481A9C
:1032C000F0EE480A9FED5A0A05A800F025FC17AA5F
:1032D00005A9584800F061FC564817AA05A9C0384E
:1032E00000F05BFC534817AA05A9C03000F055FC5C
:1032F00017AA05A9504800F050FC00200490DFF800
:103300003C814FF47A642146D8F8000000F096FD25
:10331000FEF79CFA009065422946D8F8040000F0B8
:103320008DFDFEF793FA01902946D8F8080000F0C9
:1033300085FDFEF78BFA02902146D8F80C0000F0CC
:103340007DFDFEF783FA0390002504AFE946FEF702
:103350007DFA064600243A5D012A1FD058F8240061
:10336000B0F91410002900DA494200EE101AB8EE44
:10337000C00A9AB959F82410711AB1F57A7F0DD99B
:1033800010EE101A2E4A914208DA002100F056FD84
:1033900049F82460012038556D1CEDB2641CE4B27C
:1033A000042CD8D30120FEF741F9042DCFD340F6E9
:1033B000B8342146BAEE040AD8F8000000F0FAFB4F
:1033C0002146B2EE040AD8F8040000F0F3FB2146CF
:1033D000B2EE040AD8F8080000F0ECFB2146BAEE81
:1033E000040AD8F80C0000F0E5FB002458F824008B
:1033F00000F000FC58F82400002100F01FFD641CC0
:10340000E4B2042CF2D30FA11748FFF7E5FE29B070
:103410000120BDEC028BBDE8F083000000007A457E
:10342000000000000AD7A33D0000FA4400007A44DF
:103430000AD7A33C24070020A4080020480000204D
:103440000000A0404D3230303620696E69746961E9
:103450006C697A656420696E20706172616C6C655C
:103460006C2E0D0A000000000401002010B500F0D1
:1034700037F80446FFF70AFF2044C0B2022804D000
:1034800005A10D48FFF7A8FEFEE7BDE810400BA11F
:103490000948FFF7A1BE00004D6F746F7220496E9E
:1034A000697469616C697A6174696F6E20666169BB
:1034B0006C65640D0A000000040100204D6F746FFC
:1034C0007220496E697469616C697A6174696F6EA2
:1034D00020636F6D706C657465640D0A00000000F8
:1034E00010B500F0FBF8044601210C4800F046FD41
:1034F00004440A480121203000F040FD2044C0B2BD
:10350000032805D006A10E48FFF766FE002010BD77
:103510000CA10B48FFF760FE012010BD240600201F
:10352000444D3335313920496E697469616C697A6B
:103530006174696F6E206661696C65640D0A0000D4
:1035400004010020444D3335313920496E697469D6
:10355000616C697A6174696F6E20636F6D706C6500
:103560007465640D0A0000002DE9F0412DED028B19
:103570008AB006A80090464B07AA08A909A801F03E
:1035800063FA0798FCF796FE04460D460898FCF788
:1035900091FE06460F460998FCF78CFE41EC100B95
:1035A000DFF8EC809DF8180053EC102B98F8001011
:1035B000CDE90067CDE90410CDE9024535A13E48CB
:1035C000FFF70AFE9DED071ADDED080A9DED090AD9
:1035D0003A4800F0B5F998F8000098F80110401A40
:1035E000012848D198F8020030B19FED358A0128B2
:1035F0001AD002283FD12BE0012088F802009FED6D
:10360000318ADFED318A2D48F0EE480AB0EE680AC3
:10361000983000F077FC2948F0EE480AB0EE680ACE
:10362000B83000F06FFC26E0022088F80200234842
:10363000F0EE480A9FED250A983000F063FC1F4821
:10364000F0EE480A9FED220AB83000F05BFC12E071
:10365000002088F802001948F0EE480A9FED1D0A84
:10366000983000F04FFC1548F0EE480A9FED1A0A1A
:10367000B83000F047FC98F8000088F801009DF889
:10368000180000F091F80AB0BDEC028BBDE8F081A3
:103690003C000020783A25326620793A25326620AF
:1036A000773A253266206D6F643A256420636D6435
:1036B0003A25640D0A000000040100204C0500209A
:1036C0005555853E5555053F0000000000E0ABC450
:1036D00000E0AB4400A00CC500A00C4510B51F488D
:1036E000012180F82C10022180F84C10032180F871
:1036F0006C10042180F88C100121183000F03EFC81
:10370000044616480121383000F038FC04441348C0
:103710000121583000F032FC044410480121783077
:1037200000F02CFC04440D480121983000F026FCE8
:1037300004440A480121B83000F020FC2044C0B203
:10374000062805D006A10E48FFF746FD002010BD53
:103750000CA10B48FFF740FD012010BD4C050020D7
:103760004368617373697320496E697469616C6938
:103770007A6174696F6E206661696C65640D0A0018
:10378000040100204368617373697320496E697492
:1037900069616C697A6174696F6E20636F6D706CBA
:1037A000657465640D0A00002DE9F04105462DEDB4
:1037B000028B00242D4E9FED2E8A06F1080725FA74
:1037C00004F0C0070CD0294836F81410183000EB6C
:1037D000840090ED000A57F8240000F0EBF907E0B0
:1037E00036F8141057F82400B0EE480A00F0E2F959
:1037F000641CE4B2042CE2D3C5F30110012815D0F7
:10380000022819D0B0EE480A1A4800F0E1FBA809D6
:10381000012817D002281FD0B0EE480ABDEC028B59
:103820001448BDE8F041203000F0D2BBBEEE000AE3
:10383000104800F0CDFBEAE7B6EE000A0D4800F0B4
:10384000C7FBE4E7BDEC028B0A48BDE8F0419FED01
:103850000A0A203000F0BCBBBDEC028B0548BDE875
:10386000F0419FED060A203000F0B2BB400000207E
:1038700000000000240600209A9999BE9A99993E6A
:1038800030B593B0302107A8FCF7F8FC142102A84A
:10389000FCF7F4FC00252048016841F080510160EC
:1038A000006800F0805001901C48016841F44041DC
:1038B0000160006800F4404001900120079000047E
:1038C000089002240D9480010E9006200F90B420E1
:1038D000109011940420129007A8FEF797F908B1F0
:1038E000FDF784F8FEF756F808B1FDF77FF80F20D2
:1038F0000290039404954FF4A05005904FF480502B
:103900000690052102A8FEF77FF8002801D0FDF7F8
:103910006DF813B030BD0000403802400070004028
:1039200070470000014800F0B7B900001C040020F7
:103930004FF40071014800F053BA000094000020D9
:103940002DE9F04104462DED048B30EEC03AD4ED64
:10395000001A94ED012A71EE821A94ED052A01EE07
:10396000213AC3EE022AB1EE403A33EE603A01EE5C
:10397000213AC3EE028A30EE603A01EE213A83EE3C
:10398000028A30EE200A01EE210A80EE029AB0EEA1
:10399000620A04F1180000F01BFB0546B0EE680A4D
:1039A00004F1380000F014FB0646B0EE480A04F1BA
:1039B000580000F00DFB0746B0EE490A04F178000C
:1039C00000F006FBA9193944BDEC048B0844C0B2D1
:1039D000BDE8F08110B580ED000AC0ED010A9FED51
:1039E000110A80ED020A80ED030A80ED040A80EDE1
:1039F000051A00220C49183000F010FB183800227C
:103A00000949383000F00AFB38380022064958309E
:103A100000F004FB583800220349783000F0FEFA29
:103A2000783810BD000000006C00002090ED051AF1
:103A300090ED070A31EE400A80ED080AD0ED111A28
:103A4000F0EEC00AF4EEE10AF1EE10FA06D280EDD3
:103A5000090A9FED300A80ED0B0A7047D0ED000A8D
:103A600060EE802AC0ED0A2AD0ED0B0AD0ED011AD3
:103A700041EE800AC0ED0B0AD0ED091A90ED022A42
:103A800070EE611A21EE823A80ED0C3AD0ED031A05
:103A9000D0ED063A21EE812AD0ED041A01EEE32A98
:103AA00080ED0D2AD0ED0E1AF4EEE10AF1EE10FAD7
:103AB00002DDC0ED0B1A08E0F1EE611AF4EEE10A46
:103AC000F1EE10FA01D2C0ED0B1AD0ED0B0A72EE36
:103AD000A00A70EE830A70EE820AC0ED100AD0EDE3
:103AE0000F1AF4EEE10AF1EE10FA02DDC0ED101A41
:103AF00008E0F1EE611AF4EEE10AF1EE10FA01D2FB
:103B0000C0ED101A80ED090A80ED061A90ED100A3A
:103B1000704700000000000080ED000AC0ED010ABF
:103B200080ED021A9FED0F0A80ED030A80ED040A72
:103B300080ED050A80ED070A80ED080A80ED090A8C
:103B400080ED0A0A80ED0B0A80ED0C0A80ED0D0A6B
:103B5000C0ED0E1A80ED0F2A80ED100A80ED110ADB
:103B6000704700000000000091ED000A80ED000A9F
:103B700091ED010A80ED010A91ED020A80ED020A41
:103B800091ED0E0AB0EEC00A80ED0E0A91ED0F0A1B
:103B9000B0EEC00A80ED0F0A704770B51446783059
:103BA0000546FFF7E1FF21462846BDE87040FFF7D4
:103BB000DBBF0000D0ED030A9FED0D1A20EE800A56
:103BC000DFED0A0A60EE200A80EE810AD0ED230ABA
:103BD000C0ED240A80ED230A00EE101AB8EE400A68
:103BE00080ED2D0A022180F82D107047000000465C
:103BF0000000B4434FF0FF310182704710B5002937
:103C000002D08A79082A01D0002010BD0A68A2F2E9
:103C10000122082A01D3002010BD0A7ACB7942EA9A
:103C2000032242828B7A4C7A43EA042383820B7B01
:103C3000C97A43EA012109B200EE101ADFED150A34
:103C4000B8EEC00A20EE200A80ED060AB0F9101086
:103C5000002907DA418A018282840021016281629F
:103C6000012010BD838C9B1AB3F5805F03DD036ACE
:103C70005B1C036205E013F5805F02DA036A5B1EDA
:103C80000362036A02EB4333591A81628284012082
:103C900010BD00006F12833A10B500F08BF8044697
:103CA00044B1204600F052F80146204600F05EF88C
:103CB000012010BD002010BD10B5B0F9141000EEA9
:103CC000101AB8EEC00A80ED130A3030FFF7AEFECE
:103CD000BDEEC00A10EE100A00B242F21071884226
:103CE00001DB084610BD02498842FBDC084610BDD6
:103CF000F0D8FFFF10B5044694ED0A0AB8EEC00AEA
:103D0000207803280DD10020207084ED250A04F1CD
:103D10007800FFF78BFED4ED110AC4ED120A84ED92
:103D2000110A2078401C2070B4F9140000EE100A2B
:103D3000B8EEC00A84ED130A04F13000FFF776FEF6
:103D4000BDEEC00A10EE100A00B210BD90F82D10A2
:103D5000002905D0012905D0022905D0002070478F
:103D600000207047FFF7A8BFFFF7C4BF10B5027A65
:103D7000501EC31700EB937323F00303C01A4006D1
:103D8000030E082A01D9002010BDC1F30724C8B2D0
:103D9000042A05D806491944CC710872012010BDC7
:103DA000034910311944CC710872012010BD000084
:103DB0001C00002030B501460868A0F20120072849
:103DC0000AD884B2054D55F8240028B1FFF716FF34
:103DD00010B155F8240030BD002030BD2C05002066
:103DE00010B5002816D00024B1F5007F14D0A1F53D
:103DF0008072FF3A01D0002010BD05220E49FCF769
:103E000037FD00210C4A5318DC71491CC9B208293E
:103E1000F9D310BD002010BD074905221039FCF769
:103E200027FD0021044A103A5318DC71491CC9B21D
:103E30000829F9D310BD00002C00002000EE101A54
:103E4000B8EEC00AD0ED110AC0ED120A80ED110AD9
:103E5000012180F82D10704710B52DED028B032342
:103E60000370416002729FED1D0A80ED030A191F65
:103E700001820021418281829FED198A80ED068AAC
:103E8000017701628184816280F82C1080F82D1006
:103E90009FED142ADFED141A9FED141ADFED140ABA
:103EA0009FED140A3030FFF737FE30389FED122AAD
:103EB000DFED121AB1EE041AF0EE480AB2EE0E0A65
:103EC0007830FFF729FE7838017A491E072902D891
:103ED0000B4A42F82100BDEC028B10BD00001042DD
:103EE0000000000000A00C460080BB449A99993E57
:103EF0000AD7233C6666263F0000FA4400007A4455
:103F00002C0500201FB590ED041ADFED1B1A21EEE1
:103F1000000A20EE210A80ED070A21EE200A80ED3A
:103F2000060A8169C269037D03F58073009300234B
:103F30008DF804308DF8053008238DF806308DF8A3
:103F40000720130A8DF80830130C8DF80930120E73
:103F50008DF80A208DF80B100A0A8DF80C200A0C37
:103F60008DF80D20090E8DF80E10006805226946A7
:103F7000FCF77EFC04B010BD35FA8E3C1FB5027D07
:103F8000009200228DF804208DF8052008228DF87B
:103F90000620FF228DF807208DF808208DF80920D3
:103FA0008DF80A208DF80B208DF80C208DF80D204F
:103FB000012909D0FD218DF80E10006805226946FF
:103FC000FCF756FC04B010BDFC218DF80E10F4E790
:103FD0001FB5D0ED040A20EE800A80ED060A017DAF
:103FE00001F50071009100218DF804108DF8051085
:103FF00004218DF8061081698DF807100A0A8DF8E2
:1040000008200A0C8DF80920090E8DF80A100068A6
:1040100005226946FCF72CFC04B010BD01600021AC
:104020000171C18001814181017341739FED050AD6
:1040300080ED040A02759FED040A80ED060A80ED0A
:10404000070A70472CA09941000000000FB4054BEF
:1040500010B503A9044A029800F048F910BC5DF8B5
:1040600014FB0000314A0008680000207CB50446BB
:1040700000201D46164600290BD0491ECDE90041FF
:10408000044B6A462946304600F030F9009A002178
:1040900011707CBD1B4A00080907090E002804DBCB
:1040A00000F1E02080F80014704700F00F0000F1EC
:1040B000E02080F8141D704702E008C8121F08C1F4
:1040C000002AFAD170477047002001E001C1121F99
:1040D000002AFBD17047000010B5B1EE041ADFEDE5
:1040E0001B0A9FED1B0A1B48FFF774FC19480522A9
:1040F00019499830FFF792FF164806221649B83042
:10410000FFF78CFF134808221349D830FFF786FFCA
:10411000104807221049F830FFF780FF01220F49AD
:104120000F48FFF799FE0E4802220C49C030FFF7F6
:1041300093FE032209490B48FFF78EFE094804222B
:10414000BDE810400549C030FFF786BECDCC0C3F1E
:1041500014AE073F4C0500206C00002094000020A6
:1041600064060020E40700202DE9FF5F82B00021F3
:10417000DDE90430020DDDF840B0034318D044F609
:104180001050A2F2FF3242431514119801281FD09B
:10419000A5EB0B00401C5FEA000A4FF000064E4FF3
:1041A000DFF83891B046504615D5CAF1000413E047
:1041B000119801244AA3012801D16FEA0B0102984A
:1041C000119AC0E90031C0E9024206B0BDE8F09F93
:1041D000CBF10000DFE704460021404A491842EBDA
:1041E0000450CDE9001012E0E00707D032463B460C
:1041F00040464946FCF74DF98046894632463B46E3
:1042000010461946FCF745F906460F466410002C87
:10421000EAD1DDE90401DDE90023BAF1000F06DA95
:10422000FCF737F942464B46FCF733F905E0FCF75B
:10423000A2F942464B46FCF79EF904460E46002280
:10424000284BFCF71FFA03D84FF0FF30014607E078
:104250000022254B20463146FCF774F8FCF7FAF9AA
:10426000102409E0002C0ADB0A220023FBF7BCFF24
:10427000039B30321A55641E50EA0102F2D1641CCD
:10428000039AC4F111031444119A012A03D00122A4
:1042900008430DD10AE0084304D000204FF0110B71
:1042A000119072E7A3EB0B056D1E0DE05B4504DD7D
:1042B0004FF0000205F1010504E003DA4FF00002BF
:1042C000A5F10105002AECD002981199C0E902314C
:1042D000C0E9004579E70000000014400000F03F0D
:1042E000300000000000F0430000E03F2DE9FF4FE8
:1042F00095B09B468946064600250FE2252877D1D2
:1043000000242746F84A0121059400E0044316F8EA
:10431000013F203B01FA03F01042F7D130782A2800
:1043200011D06FF02F033078A0F13002092A16D88F
:10433000059A44F0020402EB820203EB42021044AD
:10434000761C0590EFE759F8042B0592002A03DA52
:10435000504244F40054059044F00204761C307836
:104360002E2816D116F8010F44F004042A280DD087
:104370006FF02F023078A0F13003092B09D807EB3A
:10438000870302EB4303C718761CF3E759F8047B55
:10439000761C30786C280FD006DC4C2817D06828A3
:1043A0000DD06A2814D104E0742810D07A280FD1D7
:1043B0000DE044F400140AE044F4801401E044F4F5
:1043C00040147278824202D104F58014761C761C67
:1043D000307866280BD013DC582877D009DC002809
:1043E00075D04528F6D04628F4D047281AD19DE14B
:1043F00018E0632835D0642879D0652812D195E17A
:10440000702873D008DC6728F1D069286FD06E2837
:104410000DD06F2806D1B5E073282CD0752875D043
:10442000782874D05A46179990476D1C75E1C4F3EB
:104430000250022809D003280DD0D9F80010042812
:104440000DD00D6009F1040967E1D9F80010EA17F1
:10445000C1E90052F6E7D9F800100D80F2E70D70BF
:10446000F0E719F8041B8DF8001000208DF801000A
:10447000EA46012003E059F804AB4FF0FF30610732
:104480004FF0000102D40DE008F101018846B94265
:104490000FDA8045F8DB1AF808100029F4D108E09B
:1044A00008F1010188468142FADB1AF80810002958
:1044B000F6D105985B46A0EB080721463846179AC7
:1044C00000F094FA284400EB080507E04DE029E1EC
:1044D0000DE01AF8010B5A4617999047B8F10108F8
:1044E000F7D25B4621463846179A13E142E00A228A
:1044F0000092C4F302524FF0000A022A08D059F881
:1045000004CB032A4FEAEC710AD00DE029E02AE03F
:1045100009F1070121F00702F2E802C1914609E022
:104520000FFA8CFC4FEAEC71042A03D14FFA8CFC91
:104530004FEAEC71002907DA0A460021DCF1000C91
:1045400061EB02012D2202E0220504D52B228DF819
:104550000420012203E0E20701D02022F7E7904681
:1045600059E00A2102E010220DE010214FF0000A6C
:1045700000910BE010224FF0000A44F004040827D9
:10458000009203E008224FF0000A0092C4F30252A6
:10459000022A05D059F804CB0021032A08D009E0EB
:1045A00009F1070121F00702F2E802C1914605E096
:1045B0001FFA8CFC042A01D10CF0FF0C4FF000080C
:1045C000220728D5702806D0009B83F0100353EAF9
:1045D0000A0305D00EE040228DF80420012208E0F5
:1045E0005CEA010206D030228DF804208DF8050027
:1045F00002229046009B83F0080353EA0A030AD183
:104600005CEA010201D1620705D530228DF8042051
:104610004FF001087F1E582804D034A003900EA844
:1046200002900DE036A0F9E753466046009AFBF78A
:10463000DBFD84460398825C0298401E0290027063
:104640005CEA0100F0D1029806A9081A00F1200ADC
:10465000600702D524F4803400E00127574502DDCD
:10466000A7EB0A0000E0002000EB0A01009005988B
:104670004144401A0590E00306D45B462146179A50
:10468000059800F0B3F90544002706E001A85A4652
:10469000C05D179990476D1C7F1C4745F6DBE00312
:1046A0000CD55B462146179A059800F09FF9054402
:1046B00004E030205A46179990476D1C0099481E17
:1046C00000900029F5DC08E0029802995A4600782B
:1046D000491C0291179990476D1CBAF10001AAF18B
:1046E000010AF1DC65E100000928010030313233B4
:1046F000343536373839616263646566000000001E
:104700003031323334353637383941424344454607
:104710000000000000F058F90544761C30780028AD
:104720007FF4ECAD19B02846BDE8F08F620700D4E5
:10473000062709F1070222F0070CFCE80223E146F4
:1047400003F000485FEA080C02D00FF2702C0DE075
:104750005FEA045C02D50FF2682C07E05FEAC47CD4
:1047600002D00FF2602C01E0AFF2700C4FF0FF3876
:1047700023F00043CDF850C065280CD006DC452856
:1047800009D046281DD047283DD13DE0662818D0E5
:1047900067287ED138E00021112F01DB112000E0D5
:1047A000781CCDE9000106A90EA8FFF7DDFCDDE9C4
:1047B0000F010E9A03910021009207F1010A049162
:1047C0004DE04FF000400097CDE9011006A90EA87A
:1047D000FFF7CAFCDDE90F0203920E9B119900223C
:1047E000DDF80CA00093049211B9791C00EB010ACA
:1047F000B7EB0A0004D4C0F1FF3007F1010A0490BE
:10480000AAEB0700019044E0012F00DA0127002104
:10481000112F01DD112000E03846CDE9000106A985
:104820000EA8FFF7A1FCDDE90F010E9A039100210C
:1048300004910092BA4621070CD40399514500DA3D
:104840008A46BAF1010F05DD009AAAF10101515C17
:10485000302908D0B84202DA10F1040F06DA01213B
:10486000CDE9011015E0AAF10101E9E7002805DC16
:10487000049901440491AAEB000102E0411C514556
:1048800000DD8A460499401A401C01904FF0004018
:104890000290200704D40198504501DBCDF8048034
:1048A00000208DF84F0002980DF14F07B0F1004F36
:1048B00025D02B200E9002984FF0020800280CDA29
:1048C000404202902D200E9007E00A210298FBF74B
:1048D00004FD3031029007F8011DB8F10001A8F184
:1048E0000108F2DC02980028EFD1791E0E980870BA
:1048F000307800F0200040F0450007F8020D12A8C3
:10490000C01B00F107081498007800B1012000EBEB
:104910000A01019801EBE07105984144401A401EDC
:104920000590E00306D45B462146179A059800F0EF
:104930005DF805441498007818B15A4617999047C5
:104940006D1CE00324D55B462146179A059800F0BC
:104950004DF805441CE00498002807DBDDE903015D
:10496000884203DD0098405C179901E017993020D8
:104970005A469047049805F10105401C049001989F
:10498000401E019004D12E205A46179990476D1C65
:10499000BAF10001AAF1010ADDDC05E017F8010B0C
:1049A0005A46179990476D1CB8F10001A8F101080B
:1049B000F4DC5B462146179A0598ABE62D00000013
:1049C0002B000000200000002DE9F04104460025E6
:1049D0001E461746880404D405E039462020B04717
:1049E0006D1C641EF9D52846BDE8F0812DE9F04123
:1049F000044600251E469046C80301D5302700E036
:104A00002027880404D505E041463846B0476D1C90
:104A1000641EF9D52846BDE8F0814A68002A06D010
:104A20000A68531C0B6010704868401E486070474D
:104A300013B50A23012269460248FDF7E7FE0098F4
:104A40001CBD0000040100202DE9F043DDF81CC06E
:104A5000184C65782679A77845EA0665E678360425
:104A600046EA072635436679277A94F8068046EAAF
:104A70000766E7793F0447EA08273E43677A94F8D8
:104A80000C8094F80A9047EA086794F80B804FEA84
:104A9000084848EA092847EA080794F80D8083F88F
:104AA0000080A37B8CF8003005600E601760BDE8C5
:104AB000F08300000C020020FCF7D6FEFEF7E0FEBB
:104AC000FDF7B6FFFDF796FFFDF7FAFEFEF72EF8AD
:104AD000FDF7F4FFFDF738FFFEF7C8FC11A0FFF764
:104AE000B5FA1A4D1A4E1B4FDFF86C800024287857
:104AF000012802D12C70FEF737FD3078012802D151
:104B00003470FEF70DFF3878012802D13C70FEF7B3
:104B100009FF98F800000128E9D188F80040FEF765
:104B200007FFE4E7526F626F7420696E6974696110
:104B30006C697A6174696F6E20697320636F6D7040
:104B40006C65746564210D0A0000000004000020FB
:104B5000190000201A00002018000020000610167E
:104B6000000610160000000000000000010203040F
:104B7000060708090000000001020304A04B00081A
:104B8000000000206C000000B84000080C4C000839
:104B90006C000020FC0C0000C84000083DF5FFFF41
:104BA00000000000000000000100000010000000F4
:104BB000000000000024F4000000000000020000DB
:104BC000000008000000000000000000FF010000DD
:104BD00000000800000000000000000000000000CD
:104BE000401F8813881388132407002064060020C0
:104BF000E4070020A4080020000007C50000B4441A
:0C4C00000000B4440000B4C40000000038
:04000005080001AD41
:00000001FF
